{
  "_format": "hh-sol-artifact-1",
  "contractName": "OctaNFT1155",
  "sourceName": "contracts/OctaNFT1155.sol",
  "abi": [
    {
      "anonymous": false,
      "inputs": [
        {
          "indexed": true,
          "internalType": "address",
          "name": "account",
          "type": "address"
        },
        {
          "indexed": true,
          "internalType": "address",
          "name": "operator",
          "type": "address"
        },
        {
          "indexed": false,
          "internalType": "bool",
          "name": "approved",
          "type": "bool"
        }
      ],
      "name": "ApprovalForAll",
      "type": "event"
    },
    {
      "anonymous": false,
      "inputs": [
        {
          "indexed": true,
          "internalType": "address",
          "name": "previousOwner",
          "type": "address"
        },
        {
          "indexed": true,
          "internalType": "address",
          "name": "newOwner",
          "type": "address"
        }
      ],
      "name": "OwnershipTransferred",
      "type": "event"
    },
    {
      "anonymous": false,
      "inputs": [
        {
          "indexed": false,
          "internalType": "address",
          "name": "account",
          "type": "address"
        }
      ],
      "name": "Paused",
      "type": "event"
    },
    {
      "anonymous": false,
      "inputs": [
        {
          "indexed": true,
          "internalType": "address",
          "name": "operator",
          "type": "address"
        },
        {
          "indexed": true,
          "internalType": "address",
          "name": "from",
          "type": "address"
        },
        {
          "indexed": true,
          "internalType": "address",
          "name": "to",
          "type": "address"
        },
        {
          "indexed": false,
          "internalType": "uint256[]",
          "name": "ids",
          "type": "uint256[]"
        },
        {
          "indexed": false,
          "internalType": "uint256[]",
          "name": "values",
          "type": "uint256[]"
        }
      ],
      "name": "TransferBatch",
      "type": "event"
    },
    {
      "anonymous": false,
      "inputs": [
        {
          "indexed": true,
          "internalType": "address",
          "name": "operator",
          "type": "address"
        },
        {
          "indexed": true,
          "internalType": "address",
          "name": "from",
          "type": "address"
        },
        {
          "indexed": true,
          "internalType": "address",
          "name": "to",
          "type": "address"
        },
        {
          "indexed": false,
          "internalType": "uint256",
          "name": "id",
          "type": "uint256"
        },
        {
          "indexed": false,
          "internalType": "uint256",
          "name": "value",
          "type": "uint256"
        }
      ],
      "name": "TransferSingle",
      "type": "event"
    },
    {
      "anonymous": false,
      "inputs": [
        {
          "indexed": false,
          "internalType": "string",
          "name": "value",
          "type": "string"
        },
        {
          "indexed": true,
          "internalType": "uint256",
          "name": "id",
          "type": "uint256"
        }
      ],
      "name": "URI",
      "type": "event"
    },
    {
      "anonymous": false,
      "inputs": [
        {
          "indexed": false,
          "internalType": "address",
          "name": "account",
          "type": "address"
        }
      ],
      "name": "Unpaused",
      "type": "event"
    },
    {
      "anonymous": false,
      "inputs": [
        {
          "indexed": true,
          "internalType": "address",
          "name": "to",
          "type": "address"
        },
        {
          "indexed": false,
          "internalType": "uint256",
          "name": "_boxType",
          "type": "uint256"
        }
      ],
      "name": "claimedAirdropWhitelistEvent",
      "type": "event"
    },
    {
      "inputs": [
        {
          "internalType": "address",
          "name": "account",
          "type": "address"
        },
        {
          "internalType": "uint256",
          "name": "id",
          "type": "uint256"
        }
      ],
      "name": "balanceOf",
      "outputs": [
        {
          "internalType": "uint256",
          "name": "",
          "type": "uint256"
        }
      ],
      "stateMutability": "view",
      "type": "function"
    },
    {
      "inputs": [
        {
          "internalType": "address[]",
          "name": "accounts",
          "type": "address[]"
        },
        {
          "internalType": "uint256[]",
          "name": "ids",
          "type": "uint256[]"
        }
      ],
      "name": "balanceOfBatch",
      "outputs": [
        {
          "internalType": "uint256[]",
          "name": "",
          "type": "uint256[]"
        }
      ],
      "stateMutability": "view",
      "type": "function"
    },
    {
      "inputs": [],
      "name": "boxTypeIds",
      "outputs": [
        {
          "internalType": "uint256",
          "name": "_value",
          "type": "uint256"
        }
      ],
      "stateMutability": "view",
      "type": "function"
    },
    {
      "inputs": [
        {
          "internalType": "address",
          "name": "account",
          "type": "address"
        },
        {
          "internalType": "uint256",
          "name": "id",
          "type": "uint256"
        },
        {
          "internalType": "uint256",
          "name": "value",
          "type": "uint256"
        }
      ],
      "name": "burn",
      "outputs": [],
      "stateMutability": "nonpayable",
      "type": "function"
    },
    {
      "inputs": [
        {
          "internalType": "address",
          "name": "account",
          "type": "address"
        },
        {
          "internalType": "uint256[]",
          "name": "ids",
          "type": "uint256[]"
        },
        {
          "internalType": "uint256[]",
          "name": "values",
          "type": "uint256[]"
        }
      ],
      "name": "burnBatch",
      "outputs": [],
      "stateMutability": "nonpayable",
      "type": "function"
    },
    {
      "inputs": [],
      "name": "claimedAirdropWhitelist",
      "outputs": [],
      "stateMutability": "nonpayable",
      "type": "function"
    },
    {
      "inputs": [
        {
          "internalType": "uint256",
          "name": "id",
          "type": "uint256"
        }
      ],
      "name": "exists",
      "outputs": [
        {
          "internalType": "bool",
          "name": "",
          "type": "bool"
        }
      ],
      "stateMutability": "view",
      "type": "function"
    },
    {
      "inputs": [],
      "name": "initialize",
      "outputs": [],
      "stateMutability": "nonpayable",
      "type": "function"
    },
    {
      "inputs": [
        {
          "internalType": "address",
          "name": "_chkAdmin",
          "type": "address"
        }
      ],
      "name": "isAdminAddress",
      "outputs": [
        {
          "internalType": "bool",
          "name": "",
          "type": "bool"
        }
      ],
      "stateMutability": "view",
      "type": "function"
    },
    {
      "inputs": [
        {
          "internalType": "address",
          "name": "account",
          "type": "address"
        },
        {
          "internalType": "address",
          "name": "operator",
          "type": "address"
        }
      ],
      "name": "isApprovedForAll",
      "outputs": [
        {
          "internalType": "bool",
          "name": "",
          "type": "bool"
        }
      ],
      "stateMutability": "view",
      "type": "function"
    },
    {
      "inputs": [
        {
          "internalType": "address",
          "name": "account",
          "type": "address"
        },
        {
          "internalType": "uint256",
          "name": "id",
          "type": "uint256"
        },
        {
          "internalType": "uint256",
          "name": "amount",
          "type": "uint256"
        },
        {
          "internalType": "bytes",
          "name": "data",
          "type": "bytes"
        }
      ],
      "name": "mint",
      "outputs": [],
      "stateMutability": "nonpayable",
      "type": "function"
    },
    {
      "inputs": [
        {
          "internalType": "address",
          "name": "to",
          "type": "address"
        },
        {
          "internalType": "uint256[]",
          "name": "ids",
          "type": "uint256[]"
        },
        {
          "internalType": "uint256[]",
          "name": "amounts",
          "type": "uint256[]"
        },
        {
          "internalType": "bytes",
          "name": "data",
          "type": "bytes"
        }
      ],
      "name": "mintBatch",
      "outputs": [],
      "stateMutability": "nonpayable",
      "type": "function"
    },
    {
      "inputs": [],
      "name": "owner",
      "outputs": [
        {
          "internalType": "address",
          "name": "",
          "type": "address"
        }
      ],
      "stateMutability": "view",
      "type": "function"
    },
    {
      "inputs": [],
      "name": "pause",
      "outputs": [],
      "stateMutability": "nonpayable",
      "type": "function"
    },
    {
      "inputs": [],
      "name": "paused",
      "outputs": [
        {
          "internalType": "bool",
          "name": "",
          "type": "bool"
        }
      ],
      "stateMutability": "view",
      "type": "function"
    },
    {
      "inputs": [
        {
          "internalType": "address[]",
          "name": "_whitelistList",
          "type": "address[]"
        },
        {
          "internalType": "uint256[]",
          "name": "_boxTypeIdList",
          "type": "uint256[]"
        }
      ],
      "name": "removeWhitelist",
      "outputs": [],
      "stateMutability": "nonpayable",
      "type": "function"
    },
    {
      "inputs": [],
      "name": "renounceOwnership",
      "outputs": [],
      "stateMutability": "nonpayable",
      "type": "function"
    },
    {
      "inputs": [
        {
          "internalType": "address",
          "name": "from",
          "type": "address"
        },
        {
          "internalType": "address",
          "name": "to",
          "type": "address"
        },
        {
          "internalType": "uint256[]",
          "name": "ids",
          "type": "uint256[]"
        },
        {
          "internalType": "uint256[]",
          "name": "amounts",
          "type": "uint256[]"
        },
        {
          "internalType": "bytes",
          "name": "data",
          "type": "bytes"
        }
      ],
      "name": "safeBatchTransferFrom",
      "outputs": [],
      "stateMutability": "nonpayable",
      "type": "function"
    },
    {
      "inputs": [
        {
          "internalType": "address",
          "name": "from",
          "type": "address"
        },
        {
          "internalType": "address",
          "name": "to",
          "type": "address"
        },
        {
          "internalType": "uint256",
          "name": "id",
          "type": "uint256"
        },
        {
          "internalType": "uint256",
          "name": "amount",
          "type": "uint256"
        },
        {
          "internalType": "bytes",
          "name": "data",
          "type": "bytes"
        }
      ],
      "name": "safeTransferFrom",
      "outputs": [],
      "stateMutability": "nonpayable",
      "type": "function"
    },
    {
      "inputs": [
        {
          "internalType": "address",
          "name": "_newAdmin",
          "type": "address"
        }
      ],
      "name": "setAdmin",
      "outputs": [],
      "stateMutability": "nonpayable",
      "type": "function"
    },
    {
      "inputs": [
        {
          "internalType": "address",
          "name": "operator",
          "type": "address"
        },
        {
          "internalType": "bool",
          "name": "approved",
          "type": "bool"
        }
      ],
      "name": "setApprovalForAll",
      "outputs": [],
      "stateMutability": "nonpayable",
      "type": "function"
    },
    {
      "inputs": [
        {
          "internalType": "string",
          "name": "newuri",
          "type": "string"
        }
      ],
      "name": "setURI",
      "outputs": [],
      "stateMutability": "nonpayable",
      "type": "function"
    },
    {
      "inputs": [
        {
          "internalType": "address[]",
          "name": "_whitelistList",
          "type": "address[]"
        },
        {
          "internalType": "uint256[]",
          "name": "_boxTypeIdList",
          "type": "uint256[]"
        },
        {
          "internalType": "uint256[]",
          "name": "_boxQuotaList",
          "type": "uint256[]"
        }
      ],
      "name": "setWhitelist",
      "outputs": [],
      "stateMutability": "nonpayable",
      "type": "function"
    },
    {
      "inputs": [
        {
          "internalType": "bytes4",
          "name": "interfaceId",
          "type": "bytes4"
        }
      ],
      "name": "supportsInterface",
      "outputs": [
        {
          "internalType": "bool",
          "name": "",
          "type": "bool"
        }
      ],
      "stateMutability": "view",
      "type": "function"
    },
    {
      "inputs": [
        {
          "internalType": "uint256",
          "name": "id",
          "type": "uint256"
        }
      ],
      "name": "totalSupply",
      "outputs": [
        {
          "internalType": "uint256",
          "name": "",
          "type": "uint256"
        }
      ],
      "stateMutability": "view",
      "type": "function"
    },
    {
      "inputs": [
        {
          "internalType": "address",
          "name": "newOwner",
          "type": "address"
        }
      ],
      "name": "transferOwnership",
      "outputs": [],
      "stateMutability": "nonpayable",
      "type": "function"
    },
    {
      "inputs": [],
      "name": "unpause",
      "outputs": [],
      "stateMutability": "nonpayable",
      "type": "function"
    },
    {
      "inputs": [
        {
          "internalType": "uint256",
          "name": "",
          "type": "uint256"
        }
      ],
      "name": "uri",
      "outputs": [
        {
          "internalType": "string",
          "name": "",
          "type": "string"
        }
      ],
      "stateMutability": "view",
      "type": "function"
    }
  ],
  "bytecode": "0x608060405234801561001057600080fd5b5061590680620000216000396000f3fe608060405234801561001057600080fd5b50600436106101c35760003560e01c8063704b6c02116100f9578063a22cb46511610097578063e985e9c511610071578063e985e9c5146104a0578063f242432a146104d0578063f2fde38b146104ec578063f5298aca14610508576101c3565b8063a22cb4651461044a578063bd85b03914610466578063c75a69cf14610496576101c3565b80638129fc1c116100d35780638129fc1c146103fc5780638456cb59146104065780638da5cb5b14610410578063a12d03861461042e576101c3565b8063704b6c02146103ba578063715018a6146103d6578063731133e9146103e0576101c3565b80632eb2c2d6116101665780634f558e79116101405780634f558e79146103325780634f65bd88146103625780635c975abb146103805780636b20c4541461039e576101c3565b80632eb2c2d6146102dc5780633f4ba83a146102f85780634e1273f414610302576101c3565b806302fe5305116101a257806302fe53051461025857806306c84701146102745780630e89341c146102905780631f7fdffa146102c0576101c3565b8062fdd58e146101c857806301ffc9a7146101f85780630236bb5a14610228575b600080fd5b6101e260048036038101906101dd9190613fe9565b610524565b6040516101ef9190614c96565b60405180910390f35b610212600480360381019061020d919061421e565b6105ee565b60405161021f91906148f9565b60405180910390f35b610242600480360381019061023d9190613c90565b6106d0565b60405161024f91906148f9565b60405180910390f35b610272600480360381019061026d9190614278565b61072b565b005b61028e60048036038101906102899190614177565b6107b3565b005b6102aa60048036038101906102a591906142c1565b610b82565b6040516102b79190614914565b60405180910390f35b6102da60048036038101906102d59190613eee565b610c16565b005b6102f660048036038101906102f19190613cfd565b610ca4565b005b610300610d45565b005b61031c600480360381019061031791906140ff565b610dcb565b60405161032991906148a0565b60405180910390f35b61034c600480360381019061034791906142c1565b610ee4565b60405161035991906148f9565b60405180910390f35b61036a610ef8565b6040516103779190614c96565b60405180910390f35b610388610f05565b60405161039591906148f9565b60405180910390f35b6103b860048036038101906103b39190613e63565b610f1c565b005b6103d460048036038101906103cf9190613c90565b610fb9565b005b6103de61107a565b005b6103fa60048036038101906103f5919061407c565b611102565b005b610404611190565b005b61040e6112d2565b005b610418611358565b60405161042591906147c3565b60405180910390f35b610448600480360381019061044391906140ff565b611382565b005b610464600480360381019061045f9190613fa9565b61165b565b005b610480600480360381019061047b91906142c1565b611671565b60405161048d9190614c96565b60405180910390f35b61049e61168f565b005b6104ba60048036038101906104b59190613cbd565b611960565b6040516104c791906148f9565b60405180910390f35b6104ea60048036038101906104e59190613dcc565b6119f4565b005b61050660048036038101906105019190613c90565b611a95565b005b610522600480360381019061051d9190614029565b611b8d565b005b60008073ffffffffffffffffffffffffffffffffffffffff168373ffffffffffffffffffffffffffffffffffffffff161415610595576040517f08c379a000000000000000000000000000000000000000000000000000000000815260040161058c906149b6565b60405180910390fd5b6065600083815260200190815260200160002060008473ffffffffffffffffffffffffffffffffffffffff1673ffffffffffffffffffffffffffffffffffffffff16815260200190815260200160002054905092915050565b60007fd9b67a26000000000000000000000000000000000000000000000000000000007bffffffffffffffffffffffffffffffffffffffffffffffffffffffff1916827bffffffffffffffffffffffffffffffffffffffffffffffffffffffff191614806106b957507f0e89341c000000000000000000000000000000000000000000000000000000007bffffffffffffffffffffffffffffffffffffffffffffffffffffffff1916827bffffffffffffffffffffffffffffffffffffffffffffffffffffffff1916145b806106c957506106c882611c2a565b5b9050919050565b60008173ffffffffffffffffffffffffffffffffffffffff1661016160009054906101000a900473ffffffffffffffffffffffffffffffffffffffff1673ffffffffffffffffffffffffffffffffffffffff16149050919050565b610733611c94565b73ffffffffffffffffffffffffffffffffffffffff16610751611358565b73ffffffffffffffffffffffffffffffffffffffff16146107a7576040517f08c379a000000000000000000000000000000000000000000000000000000000815260040161079e90614b56565b60405180910390fd5b6107b081611c9c565b50565b61016160009054906101000a900473ffffffffffffffffffffffffffffffffffffffff1673ffffffffffffffffffffffffffffffffffffffff163373ffffffffffffffffffffffffffffffffffffffff1614610844576040517f08c379a000000000000000000000000000000000000000000000000000000000815260040161083b90614ad6565b60405180910390fd5b6000835190506000811161088d576040517f08c379a000000000000000000000000000000000000000000000000000000000815260040161088490614a36565b60405180910390fd5b600083519050600081116108d6576040517f08c379a00000000000000000000000000000000000000000000000000000000081526004016108cd90614c36565b60405180910390fd5b6000835190506000811161091f576040517f08c379a000000000000000000000000000000000000000000000000000000000815260040161091690614b76565b60405180910390fd5b818314801561092d57508183145b801561093857508083145b610977576040517f08c379a000000000000000000000000000000000000000000000000000000000815260040161096e90614bd6565b60405180910390fd5b60005b8651811015610b795761016287828151811061099957610998615074565b5b60200260200101519080600181540180825580915050600190039060005260206000200160009091909190916101000a81548173ffffffffffffffffffffffffffffffffffffffff021916908373ffffffffffffffffffffffffffffffffffffffff16021790555060016101656000898481518110610a1b57610a1a615074565b5b602002602001015173ffffffffffffffffffffffffffffffffffffffff1673ffffffffffffffffffffffffffffffffffffffff16815260200190815260200160002060006101000a81548160ff021916908315150217905550858181518110610a8757610a86615074565b5b60200260200101516101636000898481518110610aa757610aa6615074565b5b602002602001015173ffffffffffffffffffffffffffffffffffffffff1673ffffffffffffffffffffffffffffffffffffffff16815260200190815260200160002081905550848181518110610b0057610aff615074565b5b60200260200101516101646000898481518110610b2057610b1f615074565b5b602002602001015173ffffffffffffffffffffffffffffffffffffffff1673ffffffffffffffffffffffffffffffffffffffff168152602001908152602001600020819055508080610b7190614fcd565b91505061097a565b50505050505050565b606060678054610b9190614f6a565b80601f0160208091040260200160405190810160405280929190818152602001828054610bbd90614f6a565b8015610c0a5780601f10610bdf57610100808354040283529160200191610c0a565b820191906000526020600020905b815481529060010190602001808311610bed57829003601f168201915b50505050509050919050565b610c1e611c94565b73ffffffffffffffffffffffffffffffffffffffff16610c3c611358565b73ffffffffffffffffffffffffffffffffffffffff1614610c92576040517f08c379a0000000000000000000000000000000000000000000000000000000008152600401610c8990614b56565b60405180910390fd5b610c9e84848484611cb6565b50505050565b610cac611c94565b73ffffffffffffffffffffffffffffffffffffffff168573ffffffffffffffffffffffffffffffffffffffff161480610cf25750610cf185610cec611c94565b611960565b5b610d31576040517f08c379a0000000000000000000000000000000000000000000000000000000008152600401610d2890614ab6565b60405180910390fd5b610d3e8585858585611ed5565b5050505050565b610d4d611c94565b73ffffffffffffffffffffffffffffffffffffffff16610d6b611358565b73ffffffffffffffffffffffffffffffffffffffff1614610dc1576040517f08c379a0000000000000000000000000000000000000000000000000000000008152600401610db890614b56565b60405180910390fd5b610dc96121ec565b565b60608151835114610e11576040517f08c379a0000000000000000000000000000000000000000000000000000000008152600401610e0890614c16565b60405180910390fd5b6000835167ffffffffffffffff811115610e2e57610e2d6150a3565b5b604051908082528060200260200182016040528015610e5c5781602001602082028036833780820191505090505b50905060005b8451811015610ed957610ea9858281518110610e8157610e80615074565b5b6020026020010151858381518110610e9c57610e9b615074565b5b6020026020010151610524565b828281518110610ebc57610ebb615074565b5b60200260200101818152505080610ed290614fcd565b9050610e62565b508091505092915050565b600080610ef083611671565b119050919050565b61015f8060000154905081565b600060c960009054906101000a900460ff16905090565b610f24611c94565b73ffffffffffffffffffffffffffffffffffffffff168373ffffffffffffffffffffffffffffffffffffffff161480610f6a5750610f6983610f64611c94565b611960565b5b610fa9576040517f08c379a0000000000000000000000000000000000000000000000000000000008152600401610fa090614a56565b60405180910390fd5b610fb483838361228e565b505050565b610fc1611c94565b73ffffffffffffffffffffffffffffffffffffffff16610fdf611358565b73ffffffffffffffffffffffffffffffffffffffff1614611035576040517f08c379a000000000000000000000000000000000000000000000000000000000815260040161102c90614b56565b60405180910390fd5b8061016160006101000a81548173ffffffffffffffffffffffffffffffffffffffff021916908373ffffffffffffffffffffffffffffffffffffffff16021790555050565b611082611c94565b73ffffffffffffffffffffffffffffffffffffffff166110a0611358565b73ffffffffffffffffffffffffffffffffffffffff16146110f6576040517f08c379a00000000000000000000000000000000000000000000000000000000081526004016110ed90614b56565b60405180910390fd5b6111006000612541565b565b61110a611c94565b73ffffffffffffffffffffffffffffffffffffffff16611128611358565b73ffffffffffffffffffffffffffffffffffffffff161461117e576040517f08c379a000000000000000000000000000000000000000000000000000000000815260040161117590614b56565b60405180910390fd5b61118a84848484612607565b50505050565b600060019054906101000a900460ff166111b85760008054906101000a900460ff16156111c1565b6111c061279e565b5b611200576040517f08c379a00000000000000000000000000000000000000000000000000000000081526004016111f790614af6565b60405180910390fd5b60008060019054906101000a900460ff161590508015611250576001600060016101000a81548160ff02191690831515021790555060016000806101000a81548160ff0219169083151502179055505b61128e6040518060400160405280601881526020017f68747470733a2f2f6e6674732e6f6374612e67616d65732f00000000000000008152506127af565b61129661281a565b61129e61287b565b6112a66128dc565b6112ae612945565b80156112cf5760008060016101000a81548160ff0219169083151502179055505b50565b6112da611c94565b73ffffffffffffffffffffffffffffffffffffffff166112f8611358565b73ffffffffffffffffffffffffffffffffffffffff161461134e576040517f08c379a000000000000000000000000000000000000000000000000000000000815260040161134590614b56565b60405180910390fd5b6113566129ae565b565b6000609760009054906101000a900473ffffffffffffffffffffffffffffffffffffffff16905090565b61016160009054906101000a900473ffffffffffffffffffffffffffffffffffffffff1673ffffffffffffffffffffffffffffffffffffffff163373ffffffffffffffffffffffffffffffffffffffff1614611413576040517f08c379a000000000000000000000000000000000000000000000000000000000815260040161140a90614ad6565b60405180910390fd5b6000825190506000811161145c576040517f08c379a000000000000000000000000000000000000000000000000000000000815260040161145390614a36565b60405180910390fd5b600082519050600081116114a5576040517f08c379a000000000000000000000000000000000000000000000000000000000815260040161149c90614c36565b60405180910390fd5b60005b84518110156116545761016560008683815181106114c9576114c8615074565b5b602002602001015173ffffffffffffffffffffffffffffffffffffffff1673ffffffffffffffffffffffffffffffffffffffff16815260200190815260200160002060006101000a81549060ff0219169055610163600086838151811061153357611532615074565b5b602002602001015173ffffffffffffffffffffffffffffffffffffffff1673ffffffffffffffffffffffffffffffffffffffff16815260200190815260200160002060009055610164600086838151811061159157611590615074565b5b602002602001015173ffffffffffffffffffffffffffffffffffffffff1673ffffffffffffffffffffffffffffffffffffffff1681526020019081526020016000206000905561016660008683815181106115ef576115ee615074565b5b602002602001015173ffffffffffffffffffffffffffffffffffffffff1673ffffffffffffffffffffffffffffffffffffffff16815260200190815260200160002060006101000a81549060ff0219169055808061164c90614fcd565b9150506114a8565b5050505050565b61166d611666611c94565b8383612a51565b5050565b600061012d6000838152602001908152602001600020549050919050565b600061016360003373ffffffffffffffffffffffffffffffffffffffff1673ffffffffffffffffffffffffffffffffffffffff168152602001908152602001600020549050600061016460003373ffffffffffffffffffffffffffffffffffffffff1673ffffffffffffffffffffffffffffffffffffffff1681526020019081526020016000205490506001151561016560003373ffffffffffffffffffffffffffffffffffffffff1673ffffffffffffffffffffffffffffffffffffffff16815260200190815260200160002060009054906101000a900460ff161515146117ad576040517f08c379a00000000000000000000000000000000000000000000000000000000081526004016117a4906149f6565b60405180910390fd5b6000151561016660003373ffffffffffffffffffffffffffffffffffffffff1673ffffffffffffffffffffffffffffffffffffffff16815260200190815260200160002060009054906101000a900460ff16151514611841576040517f08c379a000000000000000000000000000000000000000000000000000000000815260040161183890614b96565b60405180910390fd5b60006101606000848152602001908152602001600020541415611899576040517f08c379a000000000000000000000000000000000000000000000000000000000815260040161189090614996565b60405180910390fd5b6118b56118a4611358565b3384846118b086612bbe565b612c1b565b600161016660003373ffffffffffffffffffffffffffffffffffffffff1673ffffffffffffffffffffffffffffffffffffffff16815260200190815260200160002060006101000a81548160ff0219169083151502179055503373ffffffffffffffffffffffffffffffffffffffff167f81550ffcfce81fdffffb0e8e05740718d866a81ea87ba5737fa4dabc4604f39e836040516119549190614c96565b60405180910390a25050565b6000606660008473ffffffffffffffffffffffffffffffffffffffff1673ffffffffffffffffffffffffffffffffffffffff16815260200190815260200160002060008373ffffffffffffffffffffffffffffffffffffffff1673ffffffffffffffffffffffffffffffffffffffff16815260200190815260200160002060009054906101000a900460ff16905092915050565b6119fc611c94565b73ffffffffffffffffffffffffffffffffffffffff168573ffffffffffffffffffffffffffffffffffffffff161480611a425750611a4185611a3c611c94565b611960565b5b611a81576040517f08c379a0000000000000000000000000000000000000000000000000000000008152600401611a7890614a56565b60405180910390fd5b611a8e8585858585612c1b565b5050505050565b611a9d611c94565b73ffffffffffffffffffffffffffffffffffffffff16611abb611358565b73ffffffffffffffffffffffffffffffffffffffff1614611b11576040517f08c379a0000000000000000000000000000000000000000000000000000000008152600401611b0890614b56565b60405180910390fd5b600073ffffffffffffffffffffffffffffffffffffffff168173ffffffffffffffffffffffffffffffffffffffff161415611b81576040517f08c379a0000000000000000000000000000000000000000000000000000000008152600401611b78906149d6565b60405180910390fd5b611b8a81612541565b50565b611b95611c94565b73ffffffffffffffffffffffffffffffffffffffff168373ffffffffffffffffffffffffffffffffffffffff161480611bdb5750611bda83611bd5611c94565b611960565b5b611c1a576040517f08c379a0000000000000000000000000000000000000000000000000000000008152600401611c1190614a56565b60405180910390fd5b611c25838383612ea0565b505050565b60007f01ffc9a7000000000000000000000000000000000000000000000000000000007bffffffffffffffffffffffffffffffffffffffffffffffffffffffff1916827bffffffffffffffffffffffffffffffffffffffffffffffffffffffff1916149050919050565b600033905090565b8060679080519060200190611cb2929190613968565b5050565b600073ffffffffffffffffffffffffffffffffffffffff168473ffffffffffffffffffffffffffffffffffffffff161415611d26576040517f08c379a0000000000000000000000000000000000000000000000000000000008152600401611d1d90614c76565b60405180910390fd5b8151835114611d6a576040517f08c379a0000000000000000000000000000000000000000000000000000000008152600401611d6190614c56565b60405180910390fd5b6000611d74611c94565b9050611d85816000878787876130bf565b60005b8451811015611e3f57838181518110611da457611da3615074565b5b602002602001015160656000878481518110611dc357611dc2615074565b5b6020026020010151815260200190815260200160002060008873ffffffffffffffffffffffffffffffffffffffff1673ffffffffffffffffffffffffffffffffffffffff1681526020019081526020016000206000828254611e259190614e2a565b925050819055508080611e3790614fcd565b915050611d88565b508473ffffffffffffffffffffffffffffffffffffffff16600073ffffffffffffffffffffffffffffffffffffffff168273ffffffffffffffffffffffffffffffffffffffff167f4a39dc06d4c0dbc64b70af90fd698a233a518aa5d07e595d983b8c0526c8f7fb8787604051611eb79291906148c2565b60405180910390a4611ece8160008787878761311d565b5050505050565b8151835114611f19576040517f08c379a0000000000000000000000000000000000000000000000000000000008152600401611f1090614c56565b60405180910390fd5b600073ffffffffffffffffffffffffffffffffffffffff168473ffffffffffffffffffffffffffffffffffffffff161415611f89576040517f08c379a0000000000000000000000000000000000000000000000000000000008152600401611f8090614a96565b60405180910390fd5b6000611f93611c94565b9050611fa38187878787876130bf565b60005b8451811015612157576000858281518110611fc457611fc3615074565b5b602002602001015190506000858381518110611fe357611fe2615074565b5b6020026020010151905060006065600084815260200190815260200160002060008b73ffffffffffffffffffffffffffffffffffffffff1673ffffffffffffffffffffffffffffffffffffffff16815260200190815260200160002054905081811015612085576040517f08c379a000000000000000000000000000000000000000000000000000000000815260040161207c90614b36565b60405180910390fd5b8181036065600085815260200190815260200160002060008c73ffffffffffffffffffffffffffffffffffffffff1673ffffffffffffffffffffffffffffffffffffffff16815260200190815260200160002081905550816065600085815260200190815260200160002060008b73ffffffffffffffffffffffffffffffffffffffff1673ffffffffffffffffffffffffffffffffffffffff168152602001908152602001600020600082825461213c9190614e2a565b925050819055505050508061215090614fcd565b9050611fa6565b508473ffffffffffffffffffffffffffffffffffffffff168673ffffffffffffffffffffffffffffffffffffffff168273ffffffffffffffffffffffffffffffffffffffff167f4a39dc06d4c0dbc64b70af90fd698a233a518aa5d07e595d983b8c0526c8f7fb87876040516121ce9291906148c2565b60405180910390a46121e481878787878761311d565b505050505050565b6121f4610f05565b612233576040517f08c379a000000000000000000000000000000000000000000000000000000000815260040161222a90614976565b60405180910390fd5b600060c960006101000a81548160ff0219169083151502179055507f5db9ee0a495bf2e6ff9c91a7834c1ba4fdd244a5e8aa4e537bd38aeae4b073aa612277611c94565b60405161228491906147c3565b60405180910390a1565b600073ffffffffffffffffffffffffffffffffffffffff168373ffffffffffffffffffffffffffffffffffffffff1614156122fe576040517f08c379a00000000000000000000000000000000000000000000000000000000081526004016122f590614b16565b60405180910390fd5b8051825114612342576040517f08c379a000000000000000000000000000000000000000000000000000000000815260040161233990614c56565b60405180910390fd5b600061234c611c94565b905061236c818560008686604051806020016040528060008152506130bf565b60005b83518110156124bb57600084828151811061238d5761238c615074565b5b6020026020010151905060008483815181106123ac576123ab615074565b5b6020026020010151905060006065600084815260200190815260200160002060008973ffffffffffffffffffffffffffffffffffffffff1673ffffffffffffffffffffffffffffffffffffffff1681526020019081526020016000205490508181101561244e576040517f08c379a000000000000000000000000000000000000000000000000000000000815260040161244590614a16565b60405180910390fd5b8181036065600085815260200190815260200160002060008a73ffffffffffffffffffffffffffffffffffffffff1673ffffffffffffffffffffffffffffffffffffffff1681526020019081526020016000208190555050505080806124b390614fcd565b91505061236f565b50600073ffffffffffffffffffffffffffffffffffffffff168473ffffffffffffffffffffffffffffffffffffffff168273ffffffffffffffffffffffffffffffffffffffff167f4a39dc06d4c0dbc64b70af90fd698a233a518aa5d07e595d983b8c0526c8f7fb86866040516125339291906148c2565b60405180910390a450505050565b6000609760009054906101000a900473ffffffffffffffffffffffffffffffffffffffff16905081609760006101000a81548173ffffffffffffffffffffffffffffffffffffffff021916908373ffffffffffffffffffffffffffffffffffffffff1602179055508173ffffffffffffffffffffffffffffffffffffffff168173ffffffffffffffffffffffffffffffffffffffff167f8be0079c531659141344cd1fd0a4f28419497f9722a3daafe3b4186f6b6457e060405160405180910390a35050565b600073ffffffffffffffffffffffffffffffffffffffff168473ffffffffffffffffffffffffffffffffffffffff161415612677576040517f08c379a000000000000000000000000000000000000000000000000000000000815260040161266e90614c76565b60405180910390fd5b6000612681611c94565b90506126a28160008761269388613304565b61269c88613304565b876130bf565b826065600086815260200190815260200160002060008773ffffffffffffffffffffffffffffffffffffffff1673ffffffffffffffffffffffffffffffffffffffff16815260200190815260200160002060008282546127029190614e2a565b925050819055508473ffffffffffffffffffffffffffffffffffffffff16600073ffffffffffffffffffffffffffffffffffffffff168273ffffffffffffffffffffffffffffffffffffffff167fc3d58168c5ae7397731d063d5bbf3d657854427343f4c083240f7aacaa2d0f628787604051612780929190614cb1565b60405180910390a46127978160008787878761337e565b5050505050565b60006127a930613565565b15905090565b600060019054906101000a900460ff166127fe576040517f08c379a00000000000000000000000000000000000000000000000000000000081526004016127f590614bb6565b60405180910390fd5b612806613578565b61280e6135c9565b6128178161361a565b50565b600060019054906101000a900460ff16612869576040517f08c379a000000000000000000000000000000000000000000000000000000000815260040161286090614bb6565b60405180910390fd5b612871613578565b612879613675565b565b600060019054906101000a900460ff166128ca576040517f08c379a00000000000000000000000000000000000000000000000000000000081526004016128c190614bb6565b60405180910390fd5b6128d2613578565b6128da6136d6565b565b600060019054906101000a900460ff1661292b576040517f08c379a000000000000000000000000000000000000000000000000000000000815260040161292290614bb6565b60405180910390fd5b612933613578565b61293b6135c9565b612943613742565b565b600060019054906101000a900460ff16612994576040517f08c379a000000000000000000000000000000000000000000000000000000000815260040161298b90614bb6565b60405180910390fd5b61299c613578565b6129a46135c9565b6129ac613793565b565b6129b6610f05565b156129f6576040517f08c379a00000000000000000000000000000000000000000000000000000000081526004016129ed90614a76565b60405180910390fd5b600160c960006101000a81548160ff0219169083151502179055507f62e78cea01bee320cd4e420270b5ea74000d11b0c9f74754ebdbfc544b05a258612a3a611c94565b604051612a4791906147c3565b60405180910390a1565b8173ffffffffffffffffffffffffffffffffffffffff168373ffffffffffffffffffffffffffffffffffffffff161415612ac0576040517f08c379a0000000000000000000000000000000000000000000000000000000008152600401612ab790614bf6565b60405180910390fd5b80606660008573ffffffffffffffffffffffffffffffffffffffff1673ffffffffffffffffffffffffffffffffffffffff16815260200190815260200160002060008473ffffffffffffffffffffffffffffffffffffffff1673ffffffffffffffffffffffffffffffffffffffff16815260200190815260200160002060006101000a81548160ff0219169083151502179055508173ffffffffffffffffffffffffffffffffffffffff168373ffffffffffffffffffffffffffffffffffffffff167f17307eab39ab6107e8899845ad3d59bd9653f200f220920489ca2b5937696c3183604051612bb191906148f9565b60405180910390a3505050565b6060602067ffffffffffffffff811115612bdb57612bda6150a3565b5b6040519080825280601f01601f191660200182016040528015612c0d5781602001600182028036833780820191505090505b509050816020820152919050565b600073ffffffffffffffffffffffffffffffffffffffff168473ffffffffffffffffffffffffffffffffffffffff161415612c8b576040517f08c379a0000000000000000000000000000000000000000000000000000000008152600401612c8290614a96565b60405180910390fd5b6000612c95611c94565b9050612cb5818787612ca688613304565b612caf88613304565b876130bf565b60006065600086815260200190815260200160002060008873ffffffffffffffffffffffffffffffffffffffff1673ffffffffffffffffffffffffffffffffffffffff16815260200190815260200160002054905083811015612d4d576040517f08c379a0000000000000000000000000000000000000000000000000000000008152600401612d4490614b36565b60405180910390fd5b8381036065600087815260200190815260200160002060008973ffffffffffffffffffffffffffffffffffffffff1673ffffffffffffffffffffffffffffffffffffffff16815260200190815260200160002081905550836065600087815260200190815260200160002060008873ffffffffffffffffffffffffffffffffffffffff1673ffffffffffffffffffffffffffffffffffffffff1681526020019081526020016000206000828254612e049190614e2a565b925050819055508573ffffffffffffffffffffffffffffffffffffffff168773ffffffffffffffffffffffffffffffffffffffff168373ffffffffffffffffffffffffffffffffffffffff167fc3d58168c5ae7397731d063d5bbf3d657854427343f4c083240f7aacaa2d0f628888604051612e81929190614cb1565b60405180910390a4612e9782888888888861337e565b50505050505050565b600073ffffffffffffffffffffffffffffffffffffffff168373ffffffffffffffffffffffffffffffffffffffff161415612f10576040517f08c379a0000000000000000000000000000000000000000000000000000000008152600401612f0790614b16565b60405180910390fd5b6000612f1a611c94565b9050612f4a81856000612f2c87613304565b612f3587613304565b604051806020016040528060008152506130bf565b60006065600085815260200190815260200160002060008673ffffffffffffffffffffffffffffffffffffffff1673ffffffffffffffffffffffffffffffffffffffff16815260200190815260200160002054905082811015612fe2576040517f08c379a0000000000000000000000000000000000000000000000000000000008152600401612fd990614a16565b60405180910390fd5b8281036065600086815260200190815260200160002060008773ffffffffffffffffffffffffffffffffffffffff1673ffffffffffffffffffffffffffffffffffffffff16815260200190815260200160002081905550600073ffffffffffffffffffffffffffffffffffffffff168573ffffffffffffffffffffffffffffffffffffffff168373ffffffffffffffffffffffffffffffffffffffff167fc3d58168c5ae7397731d063d5bbf3d657854427343f4c083240f7aacaa2d0f6287876040516130b0929190614cb1565b60405180910390a45050505050565b6130c7610f05565b15613107576040517f08c379a00000000000000000000000000000000000000000000000000000000081526004016130fe90614a76565b60405180910390fd5b6131158686868686866137e4565b505050505050565b61313c8473ffffffffffffffffffffffffffffffffffffffff16613565565b156132fc578373ffffffffffffffffffffffffffffffffffffffff1663bc197c8187878686866040518663ffffffff1660e01b81526004016131829594939291906147de565b602060405180830381600087803b15801561319c57600080fd5b505af19250505080156131cd57506040513d601f19601f820116820180604052508101906131ca919061424b565b60015b613273576131d96150d2565b806308c379a0141561323657506131ee6157de565b806131f95750613238565b806040517f08c379a000000000000000000000000000000000000000000000000000000000815260040161322d9190614914565b60405180910390fd5b505b6040517f08c379a000000000000000000000000000000000000000000000000000000000815260040161326a90614936565b60405180910390fd5b63bc197c8160e01b7bffffffffffffffffffffffffffffffffffffffffffffffffffffffff1916817bffffffffffffffffffffffffffffffffffffffffffffffffffffffff1916146132fa576040517f08c379a00000000000000000000000000000000000000000000000000000000081526004016132f190614956565b60405180910390fd5b505b505050505050565b60606000600167ffffffffffffffff811115613323576133226150a3565b5b6040519080825280602002602001820160405280156133515781602001602082028036833780820191505090505b509050828160008151811061336957613368615074565b5b60200260200101818152505080915050919050565b61339d8473ffffffffffffffffffffffffffffffffffffffff16613565565b1561355d578373ffffffffffffffffffffffffffffffffffffffff1663f23a6e6187878686866040518663ffffffff1660e01b81526004016133e3959493929190614846565b602060405180830381600087803b1580156133fd57600080fd5b505af192505050801561342e57506040513d601f19601f8201168201806040525081019061342b919061424b565b60015b6134d45761343a6150d2565b806308c379a01415613497575061344f6157de565b8061345a5750613499565b806040517f08c379a000000000000000000000000000000000000000000000000000000000815260040161348e9190614914565b60405180910390fd5b505b6040517f08c379a00000000000000000000000000000000000000000000000000000000081526004016134cb90614936565b60405180910390fd5b63f23a6e6160e01b7bffffffffffffffffffffffffffffffffffffffffffffffffffffffff1916817bffffffffffffffffffffffffffffffffffffffffffffffffffffffff19161461355b576040517f08c379a000000000000000000000000000000000000000000000000000000000815260040161355290614956565b60405180910390fd5b505b505050505050565b600080823b905060008111915050919050565b600060019054906101000a900460ff166135c7576040517f08c379a00000000000000000000000000000000000000000000000000000000081526004016135be90614bb6565b60405180910390fd5b565b600060019054906101000a900460ff16613618576040517f08c379a000000000000000000000000000000000000000000000000000000000815260040161360f90614bb6565b60405180910390fd5b565b600060019054906101000a900460ff16613669576040517f08c379a000000000000000000000000000000000000000000000000000000000815260040161366090614bb6565b60405180910390fd5b61367281611c9c565b50565b600060019054906101000a900460ff166136c4576040517f08c379a00000000000000000000000000000000000000000000000000000000081526004016136bb90614bb6565b60405180910390fd5b6136d46136cf611c94565b612541565b565b600060019054906101000a900460ff16613725576040517f08c379a000000000000000000000000000000000000000000000000000000000815260040161371c90614bb6565b60405180910390fd5b600060c960006101000a81548160ff021916908315150217905550565b600060019054906101000a900460ff16613791576040517f08c379a000000000000000000000000000000000000000000000000000000000815260040161378890614bb6565b60405180910390fd5b565b600060019054906101000a900460ff166137e2576040517f08c379a00000000000000000000000000000000000000000000000000000000081526004016137d990614bb6565b60405180910390fd5b565b6137f2868686868686613960565b600073ffffffffffffffffffffffffffffffffffffffff168573ffffffffffffffffffffffffffffffffffffffff1614156138a55760005b83518110156138a35782818151811061384657613845615074565b5b602002602001015161012d600086848151811061386657613865615074565b5b60200260200101518152602001908152602001600020600082825461388b9190614e2a565b925050819055508061389c90614fcd565b905061382a565b505b600073ffffffffffffffffffffffffffffffffffffffff168473ffffffffffffffffffffffffffffffffffffffff1614156139585760005b8351811015613956578281815181106138f9576138f8615074565b5b602002602001015161012d600086848151811061391957613918615074565b5b60200260200101518152602001908152602001600020600082825461393e9190614e80565b925050819055508061394f90614fcd565b90506138dd565b505b505050505050565b505050505050565b82805461397490614f6a565b90600052602060002090601f01602090048101928261399657600085556139dd565b82601f106139af57805160ff19168380011785556139dd565b828001600101855582156139dd579182015b828111156139dc5782518255916020019190600101906139c1565b5b5090506139ea91906139ee565b5090565b5b80821115613a075760008160009055506001016139ef565b5090565b6000613a1e613a1984614cff565b614cda565b90508083825260208201905082856020860282011115613a4157613a406150f9565b5b60005b85811015613a715781613a578882613b6f565b845260208401935060208301925050600181019050613a44565b5050509392505050565b6000613a8e613a8984614d2b565b614cda565b90508083825260208201905082856020860282011115613ab157613ab06150f9565b5b60005b85811015613ae15781613ac78882613c7b565b845260208401935060208301925050600181019050613ab4565b5050509392505050565b6000613afe613af984614d57565b614cda565b905082815260208101848484011115613b1a57613b196150fe565b5b613b25848285614f28565b509392505050565b6000613b40613b3b84614d88565b614cda565b905082815260208101848484011115613b5c57613b5b6150fe565b5b613b67848285614f28565b509392505050565b600081359050613b7e81615874565b92915050565b600082601f830112613b9957613b986150f4565b5b8135613ba9848260208601613a0b565b91505092915050565b600082601f830112613bc757613bc66150f4565b5b8135613bd7848260208601613a7b565b91505092915050565b600081359050613bef8161588b565b92915050565b600081359050613c04816158a2565b92915050565b600081519050613c19816158a2565b92915050565b600082601f830112613c3457613c336150f4565b5b8135613c44848260208601613aeb565b91505092915050565b600082601f830112613c6257613c616150f4565b5b8135613c72848260208601613b2d565b91505092915050565b600081359050613c8a816158b9565b92915050565b600060208284031215613ca657613ca5615108565b5b6000613cb484828501613b6f565b91505092915050565b60008060408385031215613cd457613cd3615108565b5b6000613ce285828601613b6f565b9250506020613cf385828601613b6f565b9150509250929050565b600080600080600060a08688031215613d1957613d18615108565b5b6000613d2788828901613b6f565b9550506020613d3888828901613b6f565b945050604086013567ffffffffffffffff811115613d5957613d58615103565b5b613d6588828901613bb2565b935050606086013567ffffffffffffffff811115613d8657613d85615103565b5b613d9288828901613bb2565b925050608086013567ffffffffffffffff811115613db357613db2615103565b5b613dbf88828901613c1f565b9150509295509295909350565b600080600080600060a08688031215613de857613de7615108565b5b6000613df688828901613b6f565b9550506020613e0788828901613b6f565b9450506040613e1888828901613c7b565b9350506060613e2988828901613c7b565b925050608086013567ffffffffffffffff811115613e4a57613e49615103565b5b613e5688828901613c1f565b9150509295509295909350565b600080600060608486031215613e7c57613e7b615108565b5b6000613e8a86828701613b6f565b935050602084013567ffffffffffffffff811115613eab57613eaa615103565b5b613eb786828701613bb2565b925050604084013567ffffffffffffffff811115613ed857613ed7615103565b5b613ee486828701613bb2565b9150509250925092565b60008060008060808587031215613f0857613f07615108565b5b6000613f1687828801613b6f565b945050602085013567ffffffffffffffff811115613f3757613f36615103565b5b613f4387828801613bb2565b935050604085013567ffffffffffffffff811115613f6457613f63615103565b5b613f7087828801613bb2565b925050606085013567ffffffffffffffff811115613f9157613f90615103565b5b613f9d87828801613c1f565b91505092959194509250565b60008060408385031215613fc057613fbf615108565b5b6000613fce85828601613b6f565b9250506020613fdf85828601613be0565b9150509250929050565b6000806040838503121561400057613fff615108565b5b600061400e85828601613b6f565b925050602061401f85828601613c7b565b9150509250929050565b60008060006060848603121561404257614041615108565b5b600061405086828701613b6f565b935050602061406186828701613c7b565b925050604061407286828701613c7b565b9150509250925092565b6000806000806080858703121561409657614095615108565b5b60006140a487828801613b6f565b94505060206140b587828801613c7b565b93505060406140c687828801613c7b565b925050606085013567ffffffffffffffff8111156140e7576140e6615103565b5b6140f387828801613c1f565b91505092959194509250565b6000806040838503121561411657614115615108565b5b600083013567ffffffffffffffff81111561413457614133615103565b5b61414085828601613b84565b925050602083013567ffffffffffffffff81111561416157614160615103565b5b61416d85828601613bb2565b9150509250929050565b6000806000606084860312156141905761418f615108565b5b600084013567ffffffffffffffff8111156141ae576141ad615103565b5b6141ba86828701613b84565b935050602084013567ffffffffffffffff8111156141db576141da615103565b5b6141e786828701613bb2565b925050604084013567ffffffffffffffff81111561420857614207615103565b5b61421486828701613bb2565b9150509250925092565b60006020828403121561423457614233615108565b5b600061424284828501613bf5565b91505092915050565b60006020828403121561426157614260615108565b5b600061426f84828501613c0a565b91505092915050565b60006020828403121561428e5761428d615108565b5b600082013567ffffffffffffffff8111156142ac576142ab615103565b5b6142b884828501613c4d565b91505092915050565b6000602082840312156142d7576142d6615108565b5b60006142e584828501613c7b565b91505092915050565b60006142fa83836147a5565b60208301905092915050565b61430f81614eb4565b82525050565b600061432082614dc9565b61432a8185614df7565b935061433583614db9565b8060005b8381101561436657815161434d88826142ee565b975061435883614dea565b925050600181019050614339565b5085935050505092915050565b61437c81614ec6565b82525050565b600061438d82614dd4565b6143978185614e08565b93506143a7818560208601614f37565b6143b08161510d565b840191505092915050565b60006143c682614ddf565b6143d08185614e19565b93506143e0818560208601614f37565b6143e98161510d565b840191505092915050565b6000614401603483614e19565b915061440c8261512b565b604082019050919050565b6000614424602883614e19565b915061442f8261517a565b604082019050919050565b6000614447601483614e19565b9150614452826151c9565b602082019050919050565b600061446a601083614e19565b9150614475826151f2565b602082019050919050565b600061448d602b83614e19565b91506144988261521b565b604082019050919050565b60006144b0602683614e19565b91506144bb8261526a565b604082019050919050565b60006144d3601483614e19565b91506144de826152b9565b602082019050919050565b60006144f6602483614e19565b9150614501826152e2565b604082019050919050565b6000614519601a83614e19565b915061452482615331565b602082019050919050565b600061453c602983614e19565b91506145478261535a565b604082019050919050565b600061455f601083614e19565b915061456a826153a9565b602082019050919050565b6000614582602583614e19565b915061458d826153d2565b604082019050919050565b60006145a5603283614e19565b91506145b082615421565b604082019050919050565b60006145c8600a83614e19565b91506145d382615470565b602082019050919050565b60006145eb602e83614e19565b91506145f682615499565b604082019050919050565b600061460e602383614e19565b9150614619826154e8565b604082019050919050565b6000614631602a83614e19565b915061463c82615537565b604082019050919050565b6000614654602083614e19565b915061465f82615586565b602082019050919050565b6000614677601283614e19565b9150614682826155af565b602082019050919050565b600061469a601c83614e19565b91506146a5826155d8565b602082019050919050565b60006146bd602b83614e19565b91506146c882615601565b604082019050919050565b60006146e0601283614e19565b91506146eb82615650565b602082019050919050565b6000614703602983614e19565b915061470e82615679565b604082019050919050565b6000614726602983614e19565b9150614731826156c8565b604082019050919050565b6000614749601483614e19565b915061475482615717565b602082019050919050565b600061476c602883614e19565b915061477782615740565b604082019050919050565b600061478f602183614e19565b915061479a8261578f565b604082019050919050565b6147ae81614f1e565b82525050565b6147bd81614f1e565b82525050565b60006020820190506147d86000830184614306565b92915050565b600060a0820190506147f36000830188614306565b6148006020830187614306565b81810360408301526148128186614315565b905081810360608301526148268185614315565b9050818103608083015261483a8184614382565b90509695505050505050565b600060a08201905061485b6000830188614306565b6148686020830187614306565b61487560408301866147b4565b61488260608301856147b4565b81810360808301526148948184614382565b90509695505050505050565b600060208201905081810360008301526148ba8184614315565b905092915050565b600060408201905081810360008301526148dc8185614315565b905081810360208301526148f08184614315565b90509392505050565b600060208201905061490e6000830184614373565b92915050565b6000602082019050818103600083015261492e81846143bb565b905092915050565b6000602082019050818103600083015261494f816143f4565b9050919050565b6000602082019050818103600083015261496f81614417565b9050919050565b6000602082019050818103600083015261498f8161443a565b9050919050565b600060208201905081810360008301526149af8161445d565b9050919050565b600060208201905081810360008301526149cf81614480565b9050919050565b600060208201905081810360008301526149ef816144a3565b9050919050565b60006020820190508181036000830152614a0f816144c6565b9050919050565b60006020820190508181036000830152614a2f816144e9565b9050919050565b60006020820190508181036000830152614a4f8161450c565b9050919050565b60006020820190508181036000830152614a6f8161452f565b9050919050565b60006020820190508181036000830152614a8f81614552565b9050919050565b60006020820190508181036000830152614aaf81614575565b9050919050565b60006020820190508181036000830152614acf81614598565b9050919050565b60006020820190508181036000830152614aef816145bb565b9050919050565b60006020820190508181036000830152614b0f816145de565b9050919050565b60006020820190508181036000830152614b2f81614601565b9050919050565b60006020820190508181036000830152614b4f81614624565b9050919050565b60006020820190508181036000830152614b6f81614647565b9050919050565b60006020820190508181036000830152614b8f8161466a565b9050919050565b60006020820190508181036000830152614baf8161468d565b9050919050565b60006020820190508181036000830152614bcf816146b0565b9050919050565b60006020820190508181036000830152614bef816146d3565b9050919050565b60006020820190508181036000830152614c0f816146f6565b9050919050565b60006020820190508181036000830152614c2f81614719565b9050919050565b60006020820190508181036000830152614c4f8161473c565b9050919050565b60006020820190508181036000830152614c6f8161475f565b9050919050565b60006020820190508181036000830152614c8f81614782565b9050919050565b6000602082019050614cab60008301846147b4565b92915050565b6000604082019050614cc660008301856147b4565b614cd360208301846147b4565b9392505050565b6000614ce4614cf5565b9050614cf08282614f9c565b919050565b6000604051905090565b600067ffffffffffffffff821115614d1a57614d196150a3565b5b602082029050602081019050919050565b600067ffffffffffffffff821115614d4657614d456150a3565b5b602082029050602081019050919050565b600067ffffffffffffffff821115614d7257614d716150a3565b5b614d7b8261510d565b9050602081019050919050565b600067ffffffffffffffff821115614da357614da26150a3565b5b614dac8261510d565b9050602081019050919050565b6000819050602082019050919050565b600081519050919050565b600081519050919050565b600081519050919050565b6000602082019050919050565b600082825260208201905092915050565b600082825260208201905092915050565b600082825260208201905092915050565b6000614e3582614f1e565b9150614e4083614f1e565b9250827fffffffffffffffffffffffffffffffffffffffffffffffffffffffffffffffff03821115614e7557614e74615016565b5b828201905092915050565b6000614e8b82614f1e565b9150614e9683614f1e565b925082821015614ea957614ea8615016565b5b828203905092915050565b6000614ebf82614efe565b9050919050565b60008115159050919050565b60007fffffffff0000000000000000000000000000000000000000000000000000000082169050919050565b600073ffffffffffffffffffffffffffffffffffffffff82169050919050565b6000819050919050565b82818337600083830152505050565b60005b83811015614f55578082015181840152602081019050614f3a565b83811115614f64576000848401525b50505050565b60006002820490506001821680614f8257607f821691505b60208210811415614f9657614f95615045565b5b50919050565b614fa58261510d565b810181811067ffffffffffffffff82111715614fc457614fc36150a3565b5b80604052505050565b6000614fd882614f1e565b91507fffffffffffffffffffffffffffffffffffffffffffffffffffffffffffffffff82141561500b5761500a615016565b5b600182019050919050565b7f4e487b7100000000000000000000000000000000000000000000000000000000600052601160045260246000fd5b7f4e487b7100000000000000000000000000000000000000000000000000000000600052602260045260246000fd5b7f4e487b7100000000000000000000000000000000000000000000000000000000600052603260045260246000fd5b7f4e487b7100000000000000000000000000000000000000000000000000000000600052604160045260246000fd5b600060033d11156150f15760046000803e6150ee60005161511e565b90505b90565b600080fd5b600080fd5b600080fd5b600080fd5b600080fd5b6000601f19601f8301169050919050565b60008160e01c9050919050565b7f455243313135353a207472616e7366657220746f206e6f6e204552433131353560008201527f526563656976657220696d706c656d656e746572000000000000000000000000602082015250565b7f455243313135353a204552433131353552656365697665722072656a6563746560008201527f6420746f6b656e73000000000000000000000000000000000000000000000000602082015250565b7f5061757361626c653a206e6f7420706175736564000000000000000000000000600082015250565b7f446f6e277420686176652071756f746100000000000000000000000000000000600082015250565b7f455243313135353a2062616c616e636520717565727920666f7220746865207a60008201527f65726f2061646472657373000000000000000000000000000000000000000000602082015250565b7f4f776e61626c653a206e6577206f776e657220697320746865207a65726f206160008201527f6464726573730000000000000000000000000000000000000000000000000000602082015250565b7f446f6e277420686176652077686974656c697374000000000000000000000000600082015250565b7f455243313135353a206275726e20616d6f756e7420657863656564732062616c60008201527f616e636500000000000000000000000000000000000000000000000000000000602082015250565b7f57686974656c697374206164647265737320697320456d707479000000000000600082015250565b7f455243313135353a2063616c6c6572206973206e6f74206f776e6572206e6f7260008201527f20617070726f7665640000000000000000000000000000000000000000000000602082015250565b7f5061757361626c653a2070617573656400000000000000000000000000000000600082015250565b7f455243313135353a207472616e7366657220746f20746865207a65726f20616460008201527f6472657373000000000000000000000000000000000000000000000000000000602082015250565b7f455243313135353a207472616e736665722063616c6c6572206973206e6f742060008201527f6f776e6572206e6f7220617070726f7665640000000000000000000000000000602082015250565b7f6f6e6c792041646d696e00000000000000000000000000000000000000000000600082015250565b7f496e697469616c697a61626c653a20636f6e747261637420697320616c72656160008201527f647920696e697469616c697a6564000000000000000000000000000000000000602082015250565b7f455243313135353a206275726e2066726f6d20746865207a65726f206164647260008201527f6573730000000000000000000000000000000000000000000000000000000000602082015250565b7f455243313135353a20696e73756666696369656e742062616c616e636520666f60008201527f72207472616e7366657200000000000000000000000000000000000000000000602082015250565b7f4f776e61626c653a2063616c6c6572206973206e6f7420746865206f776e6572600082015250565b7f426f782051756f746120697320456d7074790000000000000000000000000000600082015250565b7f596f75206861766520636c61696d656420616c6c207269676874732e00000000600082015250565b7f496e697469616c697a61626c653a20636f6e7472616374206973206e6f74206960008201527f6e697469616c697a696e67000000000000000000000000000000000000000000602082015250565b7f416c6c204c697374206d6973736d617463680000000000000000000000000000600082015250565b7f455243313135353a2073657474696e6720617070726f76616c2073746174757360008201527f20666f722073656c660000000000000000000000000000000000000000000000602082015250565b7f455243313135353a206163636f756e747320616e6420696473206c656e67746860008201527f206d69736d617463680000000000000000000000000000000000000000000000602082015250565b7f426f78207479706520696420697320456d707479000000000000000000000000600082015250565b7f455243313135353a2069647320616e6420616d6f756e7473206c656e6774682060008201527f6d69736d61746368000000000000000000000000000000000000000000000000602082015250565b7f455243313135353a206d696e7420746f20746865207a65726f2061646472657360008201527f7300000000000000000000000000000000000000000000000000000000000000602082015250565b600060443d10156157ee57615871565b6157f6614cf5565b60043d036004823e80513d602482011167ffffffffffffffff8211171561581e575050615871565b808201805167ffffffffffffffff81111561583c5750505050615871565b80602083010160043d038501811115615859575050505050615871565b61586882602001850186614f9c565b82955050505050505b90565b61587d81614eb4565b811461588857600080fd5b50565b61589481614ec6565b811461589f57600080fd5b50565b6158ab81614ed2565b81146158b657600080fd5b50565b6158c281614f1e565b81146158cd57600080fd5b5056fea2646970667358221220072a3dbf4b2b2468ce0669d55bc5cc1f130f0524ebabbac287e7aaeb6002a10c64736f6c63430008070033",
  "linkReferences": {},
  "deployedLinkReferences": {}
}