{
  "_format": "hh-sol-artifact-1",
  "TcontractAddress": "0xf229EF0FD0b1483B8f5E74786B303BaeB20551c4",
  "contractName": "THTESTNFT1155",
  "sourceName": "contracts/THTESTNFT1155.sol",
  "abi": [
    {
      "anonymous": false,
      "inputs": [
        {
          "indexed": true,
          "internalType": "address",
          "name": "account",
          "type": "address"
        },
        {
          "indexed": true,
          "internalType": "address",
          "name": "operator",
          "type": "address"
        },
        {
          "indexed": false,
          "internalType": "bool",
          "name": "approved",
          "type": "bool"
        }
      ],
      "name": "ApprovalForAll",
      "type": "event"
    },
    {
      "anonymous": false,
      "inputs": [
        {
          "indexed": true,
          "internalType": "address",
          "name": "previousOwner",
          "type": "address"
        },
        {
          "indexed": true,
          "internalType": "address",
          "name": "newOwner",
          "type": "address"
        }
      ],
      "name": "OwnershipTransferred",
      "type": "event"
    },
    {
      "anonymous": false,
      "inputs": [
        {
          "indexed": false,
          "internalType": "address",
          "name": "account",
          "type": "address"
        }
      ],
      "name": "Paused",
      "type": "event"
    },
    {
      "anonymous": false,
      "inputs": [
        {
          "indexed": true,
          "internalType": "address",
          "name": "operator",
          "type": "address"
        },
        {
          "indexed": true,
          "internalType": "address",
          "name": "from",
          "type": "address"
        },
        {
          "indexed": true,
          "internalType": "address",
          "name": "to",
          "type": "address"
        },
        {
          "indexed": false,
          "internalType": "uint256[]",
          "name": "ids",
          "type": "uint256[]"
        },
        {
          "indexed": false,
          "internalType": "uint256[]",
          "name": "values",
          "type": "uint256[]"
        }
      ],
      "name": "TransferBatch",
      "type": "event"
    },
    {
      "anonymous": false,
      "inputs": [
        {
          "indexed": true,
          "internalType": "address",
          "name": "operator",
          "type": "address"
        },
        {
          "indexed": true,
          "internalType": "address",
          "name": "from",
          "type": "address"
        },
        {
          "indexed": true,
          "internalType": "address",
          "name": "to",
          "type": "address"
        },
        {
          "indexed": false,
          "internalType": "uint256",
          "name": "id",
          "type": "uint256"
        },
        {
          "indexed": false,
          "internalType": "uint256",
          "name": "value",
          "type": "uint256"
        }
      ],
      "name": "TransferSingle",
      "type": "event"
    },
    {
      "anonymous": false,
      "inputs": [
        {
          "indexed": false,
          "internalType": "string",
          "name": "value",
          "type": "string"
        },
        {
          "indexed": true,
          "internalType": "uint256",
          "name": "id",
          "type": "uint256"
        }
      ],
      "name": "URI",
      "type": "event"
    },
    {
      "anonymous": false,
      "inputs": [
        {
          "indexed": false,
          "internalType": "address",
          "name": "account",
          "type": "address"
        }
      ],
      "name": "Unpaused",
      "type": "event"
    },
    {
      "anonymous": false,
      "inputs": [
        {
          "indexed": true,
          "internalType": "address",
          "name": "to",
          "type": "address"
        },
        {
          "indexed": false,
          "internalType": "uint256",
          "name": "_boxType",
          "type": "uint256"
        },
        {
          "indexed": false,
          "internalType": "uint256",
          "name": "_boxQuota",
          "type": "uint256"
        }
      ],
      "name": "claimedAirdropWhitelistEvent",
      "type": "event"
    },
    {
      "inputs": [
        {
          "internalType": "address",
          "name": "account",
          "type": "address"
        },
        {
          "internalType": "uint256",
          "name": "id",
          "type": "uint256"
        }
      ],
      "name": "balanceOf",
      "outputs": [
        {
          "internalType": "uint256",
          "name": "",
          "type": "uint256"
        }
      ],
      "stateMutability": "view",
      "type": "function"
    },
    {
      "inputs": [
        {
          "internalType": "address[]",
          "name": "accounts",
          "type": "address[]"
        },
        {
          "internalType": "uint256[]",
          "name": "ids",
          "type": "uint256[]"
        }
      ],
      "name": "balanceOfBatch",
      "outputs": [
        {
          "internalType": "uint256[]",
          "name": "",
          "type": "uint256[]"
        }
      ],
      "stateMutability": "view",
      "type": "function"
    },
    {
      "inputs": [],
      "name": "boxTypeIds",
      "outputs": [
        {
          "internalType": "uint256",
          "name": "_value",
          "type": "uint256"
        }
      ],
      "stateMutability": "view",
      "type": "function"
    },
    {
      "inputs": [
        {
          "internalType": "address",
          "name": "account",
          "type": "address"
        },
        {
          "internalType": "uint256",
          "name": "id",
          "type": "uint256"
        },
        {
          "internalType": "uint256",
          "name": "value",
          "type": "uint256"
        }
      ],
      "name": "burn",
      "outputs": [],
      "stateMutability": "nonpayable",
      "type": "function"
    },
    {
      "inputs": [
        {
          "internalType": "address",
          "name": "account",
          "type": "address"
        },
        {
          "internalType": "uint256[]",
          "name": "ids",
          "type": "uint256[]"
        },
        {
          "internalType": "uint256[]",
          "name": "values",
          "type": "uint256[]"
        }
      ],
      "name": "burnBatch",
      "outputs": [],
      "stateMutability": "nonpayable",
      "type": "function"
    },
    {
      "inputs": [],
      "name": "claimedAirdropWhitelist",
      "outputs": [],
      "stateMutability": "nonpayable",
      "type": "function"
    },
    {
      "inputs": [
        {
          "internalType": "uint256",
          "name": "id",
          "type": "uint256"
        }
      ],
      "name": "exists",
      "outputs": [
        {
          "internalType": "bool",
          "name": "",
          "type": "bool"
        }
      ],
      "stateMutability": "view",
      "type": "function"
    },
    {
      "inputs": [],
      "name": "initialize",
      "outputs": [],
      "stateMutability": "nonpayable",
      "type": "function"
    },
    {
      "inputs": [
        {
          "internalType": "address",
          "name": "_chkAdmin",
          "type": "address"
        }
      ],
      "name": "isAdminAddress",
      "outputs": [
        {
          "internalType": "bool",
          "name": "",
          "type": "bool"
        }
      ],
      "stateMutability": "view",
      "type": "function"
    },
    {
      "inputs": [
        {
          "internalType": "address",
          "name": "account",
          "type": "address"
        },
        {
          "internalType": "address",
          "name": "operator",
          "type": "address"
        }
      ],
      "name": "isApprovedForAll",
      "outputs": [
        {
          "internalType": "bool",
          "name": "",
          "type": "bool"
        }
      ],
      "stateMutability": "view",
      "type": "function"
    },
    {
      "inputs": [
        {
          "internalType": "address",
          "name": "account",
          "type": "address"
        },
        {
          "internalType": "uint256",
          "name": "id",
          "type": "uint256"
        },
        {
          "internalType": "uint256",
          "name": "amount",
          "type": "uint256"
        },
        {
          "internalType": "bytes",
          "name": "data",
          "type": "bytes"
        }
      ],
      "name": "mint",
      "outputs": [],
      "stateMutability": "nonpayable",
      "type": "function"
    },
    {
      "inputs": [
        {
          "internalType": "address",
          "name": "to",
          "type": "address"
        },
        {
          "internalType": "uint256[]",
          "name": "ids",
          "type": "uint256[]"
        },
        {
          "internalType": "uint256[]",
          "name": "amounts",
          "type": "uint256[]"
        },
        {
          "internalType": "bytes",
          "name": "data",
          "type": "bytes"
        }
      ],
      "name": "mintBatch",
      "outputs": [],
      "stateMutability": "nonpayable",
      "type": "function"
    },
    {
      "inputs": [],
      "name": "owner",
      "outputs": [
        {
          "internalType": "address",
          "name": "",
          "type": "address"
        }
      ],
      "stateMutability": "view",
      "type": "function"
    },
    {
      "inputs": [],
      "name": "pause",
      "outputs": [],
      "stateMutability": "nonpayable",
      "type": "function"
    },
    {
      "inputs": [],
      "name": "paused",
      "outputs": [
        {
          "internalType": "bool",
          "name": "",
          "type": "bool"
        }
      ],
      "stateMutability": "view",
      "type": "function"
    },
    {
      "inputs": [
        {
          "internalType": "address[]",
          "name": "_whitelistList",
          "type": "address[]"
        },
        {
          "internalType": "uint256[]",
          "name": "_boxTypeIdList",
          "type": "uint256[]"
        }
      ],
      "name": "removeWhitelist",
      "outputs": [],
      "stateMutability": "nonpayable",
      "type": "function"
    },
    {
      "inputs": [],
      "name": "renounceOwnership",
      "outputs": [],
      "stateMutability": "nonpayable",
      "type": "function"
    },
    {
      "inputs": [
        {
          "internalType": "address",
          "name": "from",
          "type": "address"
        },
        {
          "internalType": "address",
          "name": "to",
          "type": "address"
        },
        {
          "internalType": "uint256[]",
          "name": "ids",
          "type": "uint256[]"
        },
        {
          "internalType": "uint256[]",
          "name": "amounts",
          "type": "uint256[]"
        },
        {
          "internalType": "bytes",
          "name": "data",
          "type": "bytes"
        }
      ],
      "name": "safeBatchTransferFrom",
      "outputs": [],
      "stateMutability": "nonpayable",
      "type": "function"
    },
    {
      "inputs": [
        {
          "internalType": "address",
          "name": "from",
          "type": "address"
        },
        {
          "internalType": "address",
          "name": "to",
          "type": "address"
        },
        {
          "internalType": "uint256",
          "name": "id",
          "type": "uint256"
        },
        {
          "internalType": "uint256",
          "name": "amount",
          "type": "uint256"
        },
        {
          "internalType": "bytes",
          "name": "data",
          "type": "bytes"
        }
      ],
      "name": "safeTransferFrom",
      "outputs": [],
      "stateMutability": "nonpayable",
      "type": "function"
    },
    {
      "inputs": [
        {
          "internalType": "address",
          "name": "_newAdmin",
          "type": "address"
        }
      ],
      "name": "setAdmin",
      "outputs": [],
      "stateMutability": "nonpayable",
      "type": "function"
    },
    {
      "inputs": [
        {
          "internalType": "address",
          "name": "operator",
          "type": "address"
        },
        {
          "internalType": "bool",
          "name": "approved",
          "type": "bool"
        }
      ],
      "name": "setApprovalForAll",
      "outputs": [],
      "stateMutability": "nonpayable",
      "type": "function"
    },
    {
      "inputs": [
        {
          "internalType": "string",
          "name": "newuri",
          "type": "string"
        }
      ],
      "name": "setURI",
      "outputs": [],
      "stateMutability": "nonpayable",
      "type": "function"
    },
    {
      "inputs": [
        {
          "internalType": "address[]",
          "name": "_whitelistList",
          "type": "address[]"
        },
        {
          "internalType": "uint256[]",
          "name": "_boxTypeIdList",
          "type": "uint256[]"
        },
        {
          "internalType": "uint256[]",
          "name": "_boxQuotaList",
          "type": "uint256[]"
        }
      ],
      "name": "setWhitelist",
      "outputs": [],
      "stateMutability": "nonpayable",
      "type": "function"
    },
    {
      "inputs": [
        {
          "internalType": "bytes4",
          "name": "interfaceId",
          "type": "bytes4"
        }
      ],
      "name": "supportsInterface",
      "outputs": [
        {
          "internalType": "bool",
          "name": "",
          "type": "bool"
        }
      ],
      "stateMutability": "view",
      "type": "function"
    },
    {
      "inputs": [
        {
          "internalType": "uint256",
          "name": "id",
          "type": "uint256"
        }
      ],
      "name": "totalSupply",
      "outputs": [
        {
          "internalType": "uint256",
          "name": "",
          "type": "uint256"
        }
      ],
      "stateMutability": "view",
      "type": "function"
    },
    {
      "inputs": [
        {
          "internalType": "address",
          "name": "newOwner",
          "type": "address"
        }
      ],
      "name": "transferOwnership",
      "outputs": [],
      "stateMutability": "nonpayable",
      "type": "function"
    },
    {
      "inputs": [],
      "name": "unpause",
      "outputs": [],
      "stateMutability": "nonpayable",
      "type": "function"
    },
    {
      "inputs": [
        {
          "internalType": "uint256",
          "name": "",
          "type": "uint256"
        }
      ],
      "name": "uri",
      "outputs": [
        {
          "internalType": "string",
          "name": "",
          "type": "string"
        }
      ],
      "stateMutability": "view",
      "type": "function"
    }
  ],
  "bytecode": "0x608060405234801561001057600080fd5b5061590880620000216000396000f3fe608060405234801561001057600080fd5b50600436106101c35760003560e01c8063704b6c02116100f9578063a22cb46511610097578063e985e9c511610071578063e985e9c5146104a0578063f242432a146104d0578063f2fde38b146104ec578063f5298aca14610508576101c3565b8063a22cb4651461044a578063bd85b03914610466578063c75a69cf14610496576101c3565b80638129fc1c116100d35780638129fc1c146103fc5780638456cb59146104065780638da5cb5b14610410578063a12d03861461042e576101c3565b8063704b6c02146103ba578063715018a6146103d6578063731133e9146103e0576101c3565b80632eb2c2d6116101665780634f558e79116101405780634f558e79146103325780634f65bd88146103625780635c975abb146103805780636b20c4541461039e576101c3565b80632eb2c2d6146102dc5780633f4ba83a146102f85780634e1273f414610302576101c3565b806302fe5305116101a257806302fe53051461025857806306c84701146102745780630e89341c146102905780631f7fdffa146102c0576101c3565b8062fdd58e146101c857806301ffc9a7146101f85780630236bb5a14610228575b600080fd5b6101e260048036038101906101dd9190613feb565b610524565b6040516101ef9190614c98565b60405180910390f35b610212600480360381019061020d9190614220565b6105ee565b60405161021f91906148fb565b60405180910390f35b610242600480360381019061023d9190613c92565b6106d0565b60405161024f91906148fb565b60405180910390f35b610272600480360381019061026d919061427a565b61072b565b005b61028e60048036038101906102899190614179565b6107b3565b005b6102aa60048036038101906102a591906142c3565b610b82565b6040516102b79190614916565b60405180910390f35b6102da60048036038101906102d59190613ef0565b610c16565b005b6102f660048036038101906102f19190613cff565b610ca4565b005b610300610d45565b005b61031c60048036038101906103179190614101565b610dcb565b60405161032991906148a2565b60405180910390f35b61034c600480360381019061034791906142c3565b610ee4565b60405161035991906148fb565b60405180910390f35b61036a610ef8565b6040516103779190614c98565b60405180910390f35b610388610f05565b60405161039591906148fb565b60405180910390f35b6103b860048036038101906103b39190613e65565b610f1c565b005b6103d460048036038101906103cf9190613c92565b610fb9565b005b6103de61107a565b005b6103fa60048036038101906103f5919061407e565b611102565b005b610404611190565b005b61040e6112d2565b005b610418611358565b60405161042591906147c5565b60405180910390f35b61044860048036038101906104439190614101565b611382565b005b610464600480360381019061045f9190613fab565b61165b565b005b610480600480360381019061047b91906142c3565b611671565b60405161048d9190614c98565b60405180910390f35b61049e61168f565b005b6104ba60048036038101906104b59190613cbf565b611962565b6040516104c791906148fb565b60405180910390f35b6104ea60048036038101906104e59190613dce565b6119f6565b005b61050660048036038101906105019190613c92565b611a97565b005b610522600480360381019061051d919061402b565b611b8f565b005b60008073ffffffffffffffffffffffffffffffffffffffff168373ffffffffffffffffffffffffffffffffffffffff161415610595576040517f08c379a000000000000000000000000000000000000000000000000000000000815260040161058c906149b8565b60405180910390fd5b6065600083815260200190815260200160002060008473ffffffffffffffffffffffffffffffffffffffff1673ffffffffffffffffffffffffffffffffffffffff16815260200190815260200160002054905092915050565b60007fd9b67a26000000000000000000000000000000000000000000000000000000007bffffffffffffffffffffffffffffffffffffffffffffffffffffffff1916827bffffffffffffffffffffffffffffffffffffffffffffffffffffffff191614806106b957507f0e89341c000000000000000000000000000000000000000000000000000000007bffffffffffffffffffffffffffffffffffffffffffffffffffffffff1916827bffffffffffffffffffffffffffffffffffffffffffffffffffffffff1916145b806106c957506106c882611c2c565b5b9050919050565b60008173ffffffffffffffffffffffffffffffffffffffff1661016160009054906101000a900473ffffffffffffffffffffffffffffffffffffffff1673ffffffffffffffffffffffffffffffffffffffff16149050919050565b610733611c96565b73ffffffffffffffffffffffffffffffffffffffff16610751611358565b73ffffffffffffffffffffffffffffffffffffffff16146107a7576040517f08c379a000000000000000000000000000000000000000000000000000000000815260040161079e90614b58565b60405180910390fd5b6107b081611c9e565b50565b61016160009054906101000a900473ffffffffffffffffffffffffffffffffffffffff1673ffffffffffffffffffffffffffffffffffffffff163373ffffffffffffffffffffffffffffffffffffffff1614610844576040517f08c379a000000000000000000000000000000000000000000000000000000000815260040161083b90614ad8565b60405180910390fd5b6000835190506000811161088d576040517f08c379a000000000000000000000000000000000000000000000000000000000815260040161088490614a38565b60405180910390fd5b600083519050600081116108d6576040517f08c379a00000000000000000000000000000000000000000000000000000000081526004016108cd90614c38565b60405180910390fd5b6000835190506000811161091f576040517f08c379a000000000000000000000000000000000000000000000000000000000815260040161091690614b78565b60405180910390fd5b818314801561092d57508183145b801561093857508083145b610977576040517f08c379a000000000000000000000000000000000000000000000000000000000815260040161096e90614bd8565b60405180910390fd5b60005b8651811015610b795761016287828151811061099957610998615076565b5b60200260200101519080600181540180825580915050600190039060005260206000200160009091909190916101000a81548173ffffffffffffffffffffffffffffffffffffffff021916908373ffffffffffffffffffffffffffffffffffffffff16021790555060016101656000898481518110610a1b57610a1a615076565b5b602002602001015173ffffffffffffffffffffffffffffffffffffffff1673ffffffffffffffffffffffffffffffffffffffff16815260200190815260200160002060006101000a81548160ff021916908315150217905550858181518110610a8757610a86615076565b5b60200260200101516101636000898481518110610aa757610aa6615076565b5b602002602001015173ffffffffffffffffffffffffffffffffffffffff1673ffffffffffffffffffffffffffffffffffffffff16815260200190815260200160002081905550848181518110610b0057610aff615076565b5b60200260200101516101646000898481518110610b2057610b1f615076565b5b602002602001015173ffffffffffffffffffffffffffffffffffffffff1673ffffffffffffffffffffffffffffffffffffffff168152602001908152602001600020819055508080610b7190614fcf565b91505061097a565b50505050505050565b606060678054610b9190614f6c565b80601f0160208091040260200160405190810160405280929190818152602001828054610bbd90614f6c565b8015610c0a5780601f10610bdf57610100808354040283529160200191610c0a565b820191906000526020600020905b815481529060010190602001808311610bed57829003601f168201915b50505050509050919050565b610c1e611c96565b73ffffffffffffffffffffffffffffffffffffffff16610c3c611358565b73ffffffffffffffffffffffffffffffffffffffff1614610c92576040517f08c379a0000000000000000000000000000000000000000000000000000000008152600401610c8990614b58565b60405180910390fd5b610c9e84848484611cb8565b50505050565b610cac611c96565b73ffffffffffffffffffffffffffffffffffffffff168573ffffffffffffffffffffffffffffffffffffffff161480610cf25750610cf185610cec611c96565b611962565b5b610d31576040517f08c379a0000000000000000000000000000000000000000000000000000000008152600401610d2890614ab8565b60405180910390fd5b610d3e8585858585611ed7565b5050505050565b610d4d611c96565b73ffffffffffffffffffffffffffffffffffffffff16610d6b611358565b73ffffffffffffffffffffffffffffffffffffffff1614610dc1576040517f08c379a0000000000000000000000000000000000000000000000000000000008152600401610db890614b58565b60405180910390fd5b610dc96121ee565b565b60608151835114610e11576040517f08c379a0000000000000000000000000000000000000000000000000000000008152600401610e0890614c18565b60405180910390fd5b6000835167ffffffffffffffff811115610e2e57610e2d6150a5565b5b604051908082528060200260200182016040528015610e5c5781602001602082028036833780820191505090505b50905060005b8451811015610ed957610ea9858281518110610e8157610e80615076565b5b6020026020010151858381518110610e9c57610e9b615076565b5b6020026020010151610524565b828281518110610ebc57610ebb615076565b5b60200260200101818152505080610ed290614fcf565b9050610e62565b508091505092915050565b600080610ef083611671565b119050919050565b61015f8060000154905081565b600060c960009054906101000a900460ff16905090565b610f24611c96565b73ffffffffffffffffffffffffffffffffffffffff168373ffffffffffffffffffffffffffffffffffffffff161480610f6a5750610f6983610f64611c96565b611962565b5b610fa9576040517f08c379a0000000000000000000000000000000000000000000000000000000008152600401610fa090614a58565b60405180910390fd5b610fb4838383612290565b505050565b610fc1611c96565b73ffffffffffffffffffffffffffffffffffffffff16610fdf611358565b73ffffffffffffffffffffffffffffffffffffffff1614611035576040517f08c379a000000000000000000000000000000000000000000000000000000000815260040161102c90614b58565b60405180910390fd5b8061016160006101000a81548173ffffffffffffffffffffffffffffffffffffffff021916908373ffffffffffffffffffffffffffffffffffffffff16021790555050565b611082611c96565b73ffffffffffffffffffffffffffffffffffffffff166110a0611358565b73ffffffffffffffffffffffffffffffffffffffff16146110f6576040517f08c379a00000000000000000000000000000000000000000000000000000000081526004016110ed90614b58565b60405180910390fd5b6111006000612543565b565b61110a611c96565b73ffffffffffffffffffffffffffffffffffffffff16611128611358565b73ffffffffffffffffffffffffffffffffffffffff161461117e576040517f08c379a000000000000000000000000000000000000000000000000000000000815260040161117590614b58565b60405180910390fd5b61118a84848484612609565b50505050565b600060019054906101000a900460ff166111b85760008054906101000a900460ff16156111c1565b6111c06127a0565b5b611200576040517f08c379a00000000000000000000000000000000000000000000000000000000081526004016111f790614af8565b60405180910390fd5b60008060019054906101000a900460ff161590508015611250576001600060016101000a81548160ff02191690831515021790555060016000806101000a81548160ff0219169083151502179055505b61128e6040518060400160405280601881526020017f68747470733a2f2f6e6674732e6f6374612e67616d65732f00000000000000008152506127b1565b61129661281c565b61129e61287d565b6112a66128de565b6112ae612947565b80156112cf5760008060016101000a81548160ff0219169083151502179055505b50565b6112da611c96565b73ffffffffffffffffffffffffffffffffffffffff166112f8611358565b73ffffffffffffffffffffffffffffffffffffffff161461134e576040517f08c379a000000000000000000000000000000000000000000000000000000000815260040161134590614b58565b60405180910390fd5b6113566129b0565b565b6000609760009054906101000a900473ffffffffffffffffffffffffffffffffffffffff16905090565b61016160009054906101000a900473ffffffffffffffffffffffffffffffffffffffff1673ffffffffffffffffffffffffffffffffffffffff163373ffffffffffffffffffffffffffffffffffffffff1614611413576040517f08c379a000000000000000000000000000000000000000000000000000000000815260040161140a90614ad8565b60405180910390fd5b6000825190506000811161145c576040517f08c379a000000000000000000000000000000000000000000000000000000000815260040161145390614a38565b60405180910390fd5b600082519050600081116114a5576040517f08c379a000000000000000000000000000000000000000000000000000000000815260040161149c90614c38565b60405180910390fd5b60005b84518110156116545761016560008683815181106114c9576114c8615076565b5b602002602001015173ffffffffffffffffffffffffffffffffffffffff1673ffffffffffffffffffffffffffffffffffffffff16815260200190815260200160002060006101000a81549060ff0219169055610163600086838151811061153357611532615076565b5b602002602001015173ffffffffffffffffffffffffffffffffffffffff1673ffffffffffffffffffffffffffffffffffffffff16815260200190815260200160002060009055610164600086838151811061159157611590615076565b5b602002602001015173ffffffffffffffffffffffffffffffffffffffff1673ffffffffffffffffffffffffffffffffffffffff1681526020019081526020016000206000905561016660008683815181106115ef576115ee615076565b5b602002602001015173ffffffffffffffffffffffffffffffffffffffff1673ffffffffffffffffffffffffffffffffffffffff16815260200190815260200160002060006101000a81549060ff0219169055808061164c90614fcf565b9150506114a8565b5050505050565b61166d611666611c96565b8383612a53565b5050565b600061012d6000838152602001908152602001600020549050919050565b600061016360003373ffffffffffffffffffffffffffffffffffffffff1673ffffffffffffffffffffffffffffffffffffffff168152602001908152602001600020549050600061016460003373ffffffffffffffffffffffffffffffffffffffff1673ffffffffffffffffffffffffffffffffffffffff1681526020019081526020016000205490506001151561016560003373ffffffffffffffffffffffffffffffffffffffff1673ffffffffffffffffffffffffffffffffffffffff16815260200190815260200160002060009054906101000a900460ff161515146117ad576040517f08c379a00000000000000000000000000000000000000000000000000000000081526004016117a4906149f8565b60405180910390fd5b6000151561016660003373ffffffffffffffffffffffffffffffffffffffff1673ffffffffffffffffffffffffffffffffffffffff16815260200190815260200160002060009054906101000a900460ff16151514611841576040517f08c379a000000000000000000000000000000000000000000000000000000000815260040161183890614b98565b60405180910390fd5b60006101606000848152602001908152602001600020541415611899576040517f08c379a000000000000000000000000000000000000000000000000000000000815260040161189090614998565b60405180910390fd5b6118b56118a4611358565b3384846118b086612bc0565b612c1d565b600161016660003373ffffffffffffffffffffffffffffffffffffffff1673ffffffffffffffffffffffffffffffffffffffff16815260200190815260200160002060006101000a81548160ff0219169083151502179055503373ffffffffffffffffffffffffffffffffffffffff167f22b7103b470384c963f38c45265b9b6f125c8a826999b281f9fe4ebad760b6178383604051611956929190614cb3565b60405180910390a25050565b6000606660008473ffffffffffffffffffffffffffffffffffffffff1673ffffffffffffffffffffffffffffffffffffffff16815260200190815260200160002060008373ffffffffffffffffffffffffffffffffffffffff1673ffffffffffffffffffffffffffffffffffffffff16815260200190815260200160002060009054906101000a900460ff16905092915050565b6119fe611c96565b73ffffffffffffffffffffffffffffffffffffffff168573ffffffffffffffffffffffffffffffffffffffff161480611a445750611a4385611a3e611c96565b611962565b5b611a83576040517f08c379a0000000000000000000000000000000000000000000000000000000008152600401611a7a90614a58565b60405180910390fd5b611a908585858585612c1d565b5050505050565b611a9f611c96565b73ffffffffffffffffffffffffffffffffffffffff16611abd611358565b73ffffffffffffffffffffffffffffffffffffffff1614611b13576040517f08c379a0000000000000000000000000000000000000000000000000000000008152600401611b0a90614b58565b60405180910390fd5b600073ffffffffffffffffffffffffffffffffffffffff168173ffffffffffffffffffffffffffffffffffffffff161415611b83576040517f08c379a0000000000000000000000000000000000000000000000000000000008152600401611b7a906149d8565b60405180910390fd5b611b8c81612543565b50565b611b97611c96565b73ffffffffffffffffffffffffffffffffffffffff168373ffffffffffffffffffffffffffffffffffffffff161480611bdd5750611bdc83611bd7611c96565b611962565b5b611c1c576040517f08c379a0000000000000000000000000000000000000000000000000000000008152600401611c1390614a58565b60405180910390fd5b611c27838383612ea2565b505050565b60007f01ffc9a7000000000000000000000000000000000000000000000000000000007bffffffffffffffffffffffffffffffffffffffffffffffffffffffff1916827bffffffffffffffffffffffffffffffffffffffffffffffffffffffff1916149050919050565b600033905090565b8060679080519060200190611cb492919061396a565b5050565b600073ffffffffffffffffffffffffffffffffffffffff168473ffffffffffffffffffffffffffffffffffffffff161415611d28576040517f08c379a0000000000000000000000000000000000000000000000000000000008152600401611d1f90614c78565b60405180910390fd5b8151835114611d6c576040517f08c379a0000000000000000000000000000000000000000000000000000000008152600401611d6390614c58565b60405180910390fd5b6000611d76611c96565b9050611d87816000878787876130c1565b60005b8451811015611e4157838181518110611da657611da5615076565b5b602002602001015160656000878481518110611dc557611dc4615076565b5b6020026020010151815260200190815260200160002060008873ffffffffffffffffffffffffffffffffffffffff1673ffffffffffffffffffffffffffffffffffffffff1681526020019081526020016000206000828254611e279190614e2c565b925050819055508080611e3990614fcf565b915050611d8a565b508473ffffffffffffffffffffffffffffffffffffffff16600073ffffffffffffffffffffffffffffffffffffffff168273ffffffffffffffffffffffffffffffffffffffff167f4a39dc06d4c0dbc64b70af90fd698a233a518aa5d07e595d983b8c0526c8f7fb8787604051611eb99291906148c4565b60405180910390a4611ed08160008787878761311f565b5050505050565b8151835114611f1b576040517f08c379a0000000000000000000000000000000000000000000000000000000008152600401611f1290614c58565b60405180910390fd5b600073ffffffffffffffffffffffffffffffffffffffff168473ffffffffffffffffffffffffffffffffffffffff161415611f8b576040517f08c379a0000000000000000000000000000000000000000000000000000000008152600401611f8290614a98565b60405180910390fd5b6000611f95611c96565b9050611fa58187878787876130c1565b60005b8451811015612159576000858281518110611fc657611fc5615076565b5b602002602001015190506000858381518110611fe557611fe4615076565b5b6020026020010151905060006065600084815260200190815260200160002060008b73ffffffffffffffffffffffffffffffffffffffff1673ffffffffffffffffffffffffffffffffffffffff16815260200190815260200160002054905081811015612087576040517f08c379a000000000000000000000000000000000000000000000000000000000815260040161207e90614b38565b60405180910390fd5b8181036065600085815260200190815260200160002060008c73ffffffffffffffffffffffffffffffffffffffff1673ffffffffffffffffffffffffffffffffffffffff16815260200190815260200160002081905550816065600085815260200190815260200160002060008b73ffffffffffffffffffffffffffffffffffffffff1673ffffffffffffffffffffffffffffffffffffffff168152602001908152602001600020600082825461213e9190614e2c565b925050819055505050508061215290614fcf565b9050611fa8565b508473ffffffffffffffffffffffffffffffffffffffff168673ffffffffffffffffffffffffffffffffffffffff168273ffffffffffffffffffffffffffffffffffffffff167f4a39dc06d4c0dbc64b70af90fd698a233a518aa5d07e595d983b8c0526c8f7fb87876040516121d09291906148c4565b60405180910390a46121e681878787878761311f565b505050505050565b6121f6610f05565b612235576040517f08c379a000000000000000000000000000000000000000000000000000000000815260040161222c90614978565b60405180910390fd5b600060c960006101000a81548160ff0219169083151502179055507f5db9ee0a495bf2e6ff9c91a7834c1ba4fdd244a5e8aa4e537bd38aeae4b073aa612279611c96565b60405161228691906147c5565b60405180910390a1565b600073ffffffffffffffffffffffffffffffffffffffff168373ffffffffffffffffffffffffffffffffffffffff161415612300576040517f08c379a00000000000000000000000000000000000000000000000000000000081526004016122f790614b18565b60405180910390fd5b8051825114612344576040517f08c379a000000000000000000000000000000000000000000000000000000000815260040161233b90614c58565b60405180910390fd5b600061234e611c96565b905061236e818560008686604051806020016040528060008152506130c1565b60005b83518110156124bd57600084828151811061238f5761238e615076565b5b6020026020010151905060008483815181106123ae576123ad615076565b5b6020026020010151905060006065600084815260200190815260200160002060008973ffffffffffffffffffffffffffffffffffffffff1673ffffffffffffffffffffffffffffffffffffffff16815260200190815260200160002054905081811015612450576040517f08c379a000000000000000000000000000000000000000000000000000000000815260040161244790614a18565b60405180910390fd5b8181036065600085815260200190815260200160002060008a73ffffffffffffffffffffffffffffffffffffffff1673ffffffffffffffffffffffffffffffffffffffff1681526020019081526020016000208190555050505080806124b590614fcf565b915050612371565b50600073ffffffffffffffffffffffffffffffffffffffff168473ffffffffffffffffffffffffffffffffffffffff168273ffffffffffffffffffffffffffffffffffffffff167f4a39dc06d4c0dbc64b70af90fd698a233a518aa5d07e595d983b8c0526c8f7fb86866040516125359291906148c4565b60405180910390a450505050565b6000609760009054906101000a900473ffffffffffffffffffffffffffffffffffffffff16905081609760006101000a81548173ffffffffffffffffffffffffffffffffffffffff021916908373ffffffffffffffffffffffffffffffffffffffff1602179055508173ffffffffffffffffffffffffffffffffffffffff168173ffffffffffffffffffffffffffffffffffffffff167f8be0079c531659141344cd1fd0a4f28419497f9722a3daafe3b4186f6b6457e060405160405180910390a35050565b600073ffffffffffffffffffffffffffffffffffffffff168473ffffffffffffffffffffffffffffffffffffffff161415612679576040517f08c379a000000000000000000000000000000000000000000000000000000000815260040161267090614c78565b60405180910390fd5b6000612683611c96565b90506126a48160008761269588613306565b61269e88613306565b876130c1565b826065600086815260200190815260200160002060008773ffffffffffffffffffffffffffffffffffffffff1673ffffffffffffffffffffffffffffffffffffffff16815260200190815260200160002060008282546127049190614e2c565b925050819055508473ffffffffffffffffffffffffffffffffffffffff16600073ffffffffffffffffffffffffffffffffffffffff168273ffffffffffffffffffffffffffffffffffffffff167fc3d58168c5ae7397731d063d5bbf3d657854427343f4c083240f7aacaa2d0f628787604051612782929190614cb3565b60405180910390a461279981600087878787613380565b5050505050565b60006127ab30613567565b15905090565b600060019054906101000a900460ff16612800576040517f08c379a00000000000000000000000000000000000000000000000000000000081526004016127f790614bb8565b60405180910390fd5b61280861357a565b6128106135cb565b6128198161361c565b50565b600060019054906101000a900460ff1661286b576040517f08c379a000000000000000000000000000000000000000000000000000000000815260040161286290614bb8565b60405180910390fd5b61287361357a565b61287b613677565b565b600060019054906101000a900460ff166128cc576040517f08c379a00000000000000000000000000000000000000000000000000000000081526004016128c390614bb8565b60405180910390fd5b6128d461357a565b6128dc6136d8565b565b600060019054906101000a900460ff1661292d576040517f08c379a000000000000000000000000000000000000000000000000000000000815260040161292490614bb8565b60405180910390fd5b61293561357a565b61293d6135cb565b612945613744565b565b600060019054906101000a900460ff16612996576040517f08c379a000000000000000000000000000000000000000000000000000000000815260040161298d90614bb8565b60405180910390fd5b61299e61357a565b6129a66135cb565b6129ae613795565b565b6129b8610f05565b156129f8576040517f08c379a00000000000000000000000000000000000000000000000000000000081526004016129ef90614a78565b60405180910390fd5b600160c960006101000a81548160ff0219169083151502179055507f62e78cea01bee320cd4e420270b5ea74000d11b0c9f74754ebdbfc544b05a258612a3c611c96565b604051612a4991906147c5565b60405180910390a1565b8173ffffffffffffffffffffffffffffffffffffffff168373ffffffffffffffffffffffffffffffffffffffff161415612ac2576040517f08c379a0000000000000000000000000000000000000000000000000000000008152600401612ab990614bf8565b60405180910390fd5b80606660008573ffffffffffffffffffffffffffffffffffffffff1673ffffffffffffffffffffffffffffffffffffffff16815260200190815260200160002060008473ffffffffffffffffffffffffffffffffffffffff1673ffffffffffffffffffffffffffffffffffffffff16815260200190815260200160002060006101000a81548160ff0219169083151502179055508173ffffffffffffffffffffffffffffffffffffffff168373ffffffffffffffffffffffffffffffffffffffff167f17307eab39ab6107e8899845ad3d59bd9653f200f220920489ca2b5937696c3183604051612bb391906148fb565b60405180910390a3505050565b6060602067ffffffffffffffff811115612bdd57612bdc6150a5565b5b6040519080825280601f01601f191660200182016040528015612c0f5781602001600182028036833780820191505090505b509050816020820152919050565b600073ffffffffffffffffffffffffffffffffffffffff168473ffffffffffffffffffffffffffffffffffffffff161415612c8d576040517f08c379a0000000000000000000000000000000000000000000000000000000008152600401612c8490614a98565b60405180910390fd5b6000612c97611c96565b9050612cb7818787612ca888613306565b612cb188613306565b876130c1565b60006065600086815260200190815260200160002060008873ffffffffffffffffffffffffffffffffffffffff1673ffffffffffffffffffffffffffffffffffffffff16815260200190815260200160002054905083811015612d4f576040517f08c379a0000000000000000000000000000000000000000000000000000000008152600401612d4690614b38565b60405180910390fd5b8381036065600087815260200190815260200160002060008973ffffffffffffffffffffffffffffffffffffffff1673ffffffffffffffffffffffffffffffffffffffff16815260200190815260200160002081905550836065600087815260200190815260200160002060008873ffffffffffffffffffffffffffffffffffffffff1673ffffffffffffffffffffffffffffffffffffffff1681526020019081526020016000206000828254612e069190614e2c565b925050819055508573ffffffffffffffffffffffffffffffffffffffff168773ffffffffffffffffffffffffffffffffffffffff168373ffffffffffffffffffffffffffffffffffffffff167fc3d58168c5ae7397731d063d5bbf3d657854427343f4c083240f7aacaa2d0f628888604051612e83929190614cb3565b60405180910390a4612e99828888888888613380565b50505050505050565b600073ffffffffffffffffffffffffffffffffffffffff168373ffffffffffffffffffffffffffffffffffffffff161415612f12576040517f08c379a0000000000000000000000000000000000000000000000000000000008152600401612f0990614b18565b60405180910390fd5b6000612f1c611c96565b9050612f4c81856000612f2e87613306565b612f3787613306565b604051806020016040528060008152506130c1565b60006065600085815260200190815260200160002060008673ffffffffffffffffffffffffffffffffffffffff1673ffffffffffffffffffffffffffffffffffffffff16815260200190815260200160002054905082811015612fe4576040517f08c379a0000000000000000000000000000000000000000000000000000000008152600401612fdb90614a18565b60405180910390fd5b8281036065600086815260200190815260200160002060008773ffffffffffffffffffffffffffffffffffffffff1673ffffffffffffffffffffffffffffffffffffffff16815260200190815260200160002081905550600073ffffffffffffffffffffffffffffffffffffffff168573ffffffffffffffffffffffffffffffffffffffff168373ffffffffffffffffffffffffffffffffffffffff167fc3d58168c5ae7397731d063d5bbf3d657854427343f4c083240f7aacaa2d0f6287876040516130b2929190614cb3565b60405180910390a45050505050565b6130c9610f05565b15613109576040517f08c379a000000000000000000000000000000000000000000000000000000000815260040161310090614a78565b60405180910390fd5b6131178686868686866137e6565b505050505050565b61313e8473ffffffffffffffffffffffffffffffffffffffff16613567565b156132fe578373ffffffffffffffffffffffffffffffffffffffff1663bc197c8187878686866040518663ffffffff1660e01b81526004016131849594939291906147e0565b602060405180830381600087803b15801561319e57600080fd5b505af19250505080156131cf57506040513d601f19601f820116820180604052508101906131cc919061424d565b60015b613275576131db6150d4565b806308c379a0141561323857506131f06157e0565b806131fb575061323a565b806040517f08c379a000000000000000000000000000000000000000000000000000000000815260040161322f9190614916565b60405180910390fd5b505b6040517f08c379a000000000000000000000000000000000000000000000000000000000815260040161326c90614938565b60405180910390fd5b63bc197c8160e01b7bffffffffffffffffffffffffffffffffffffffffffffffffffffffff1916817bffffffffffffffffffffffffffffffffffffffffffffffffffffffff1916146132fc576040517f08c379a00000000000000000000000000000000000000000000000000000000081526004016132f390614958565b60405180910390fd5b505b505050505050565b60606000600167ffffffffffffffff811115613325576133246150a5565b5b6040519080825280602002602001820160405280156133535781602001602082028036833780820191505090505b509050828160008151811061336b5761336a615076565b5b60200260200101818152505080915050919050565b61339f8473ffffffffffffffffffffffffffffffffffffffff16613567565b1561355f578373ffffffffffffffffffffffffffffffffffffffff1663f23a6e6187878686866040518663ffffffff1660e01b81526004016133e5959493929190614848565b602060405180830381600087803b1580156133ff57600080fd5b505af192505050801561343057506040513d601f19601f8201168201806040525081019061342d919061424d565b60015b6134d65761343c6150d4565b806308c379a0141561349957506134516157e0565b8061345c575061349b565b806040517f08c379a00000000000000000000000000000000000000000000000000000000081526004016134909190614916565b60405180910390fd5b505b6040517f08c379a00000000000000000000000000000000000000000000000000000000081526004016134cd90614938565b60405180910390fd5b63f23a6e6160e01b7bffffffffffffffffffffffffffffffffffffffffffffffffffffffff1916817bffffffffffffffffffffffffffffffffffffffffffffffffffffffff19161461355d576040517f08c379a000000000000000000000000000000000000000000000000000000000815260040161355490614958565b60405180910390fd5b505b505050505050565b600080823b905060008111915050919050565b600060019054906101000a900460ff166135c9576040517f08c379a00000000000000000000000000000000000000000000000000000000081526004016135c090614bb8565b60405180910390fd5b565b600060019054906101000a900460ff1661361a576040517f08c379a000000000000000000000000000000000000000000000000000000000815260040161361190614bb8565b60405180910390fd5b565b600060019054906101000a900460ff1661366b576040517f08c379a000000000000000000000000000000000000000000000000000000000815260040161366290614bb8565b60405180910390fd5b61367481611c9e565b50565b600060019054906101000a900460ff166136c6576040517f08c379a00000000000000000000000000000000000000000000000000000000081526004016136bd90614bb8565b60405180910390fd5b6136d66136d1611c96565b612543565b565b600060019054906101000a900460ff16613727576040517f08c379a000000000000000000000000000000000000000000000000000000000815260040161371e90614bb8565b60405180910390fd5b600060c960006101000a81548160ff021916908315150217905550565b600060019054906101000a900460ff16613793576040517f08c379a000000000000000000000000000000000000000000000000000000000815260040161378a90614bb8565b60405180910390fd5b565b600060019054906101000a900460ff166137e4576040517f08c379a00000000000000000000000000000000000000000000000000000000081526004016137db90614bb8565b60405180910390fd5b565b6137f4868686868686613962565b600073ffffffffffffffffffffffffffffffffffffffff168573ffffffffffffffffffffffffffffffffffffffff1614156138a75760005b83518110156138a55782818151811061384857613847615076565b5b602002602001015161012d600086848151811061386857613867615076565b5b60200260200101518152602001908152602001600020600082825461388d9190614e2c565b925050819055508061389e90614fcf565b905061382c565b505b600073ffffffffffffffffffffffffffffffffffffffff168473ffffffffffffffffffffffffffffffffffffffff16141561395a5760005b8351811015613958578281815181106138fb576138fa615076565b5b602002602001015161012d600086848151811061391b5761391a615076565b5b6020026020010151815260200190815260200160002060008282546139409190614e82565b925050819055508061395190614fcf565b90506138df565b505b505050505050565b505050505050565b82805461397690614f6c565b90600052602060002090601f01602090048101928261399857600085556139df565b82601f106139b157805160ff19168380011785556139df565b828001600101855582156139df579182015b828111156139de5782518255916020019190600101906139c3565b5b5090506139ec91906139f0565b5090565b5b80821115613a095760008160009055506001016139f1565b5090565b6000613a20613a1b84614d01565b614cdc565b90508083825260208201905082856020860282011115613a4357613a426150fb565b5b60005b85811015613a735781613a598882613b71565b845260208401935060208301925050600181019050613a46565b5050509392505050565b6000613a90613a8b84614d2d565b614cdc565b90508083825260208201905082856020860282011115613ab357613ab26150fb565b5b60005b85811015613ae35781613ac98882613c7d565b845260208401935060208301925050600181019050613ab6565b5050509392505050565b6000613b00613afb84614d59565b614cdc565b905082815260208101848484011115613b1c57613b1b615100565b5b613b27848285614f2a565b509392505050565b6000613b42613b3d84614d8a565b614cdc565b905082815260208101848484011115613b5e57613b5d615100565b5b613b69848285614f2a565b509392505050565b600081359050613b8081615876565b92915050565b600082601f830112613b9b57613b9a6150f6565b5b8135613bab848260208601613a0d565b91505092915050565b600082601f830112613bc957613bc86150f6565b5b8135613bd9848260208601613a7d565b91505092915050565b600081359050613bf18161588d565b92915050565b600081359050613c06816158a4565b92915050565b600081519050613c1b816158a4565b92915050565b600082601f830112613c3657613c356150f6565b5b8135613c46848260208601613aed565b91505092915050565b600082601f830112613c6457613c636150f6565b5b8135613c74848260208601613b2f565b91505092915050565b600081359050613c8c816158bb565b92915050565b600060208284031215613ca857613ca761510a565b5b6000613cb684828501613b71565b91505092915050565b60008060408385031215613cd657613cd561510a565b5b6000613ce485828601613b71565b9250506020613cf585828601613b71565b9150509250929050565b600080600080600060a08688031215613d1b57613d1a61510a565b5b6000613d2988828901613b71565b9550506020613d3a88828901613b71565b945050604086013567ffffffffffffffff811115613d5b57613d5a615105565b5b613d6788828901613bb4565b935050606086013567ffffffffffffffff811115613d8857613d87615105565b5b613d9488828901613bb4565b925050608086013567ffffffffffffffff811115613db557613db4615105565b5b613dc188828901613c21565b9150509295509295909350565b600080600080600060a08688031215613dea57613de961510a565b5b6000613df888828901613b71565b9550506020613e0988828901613b71565b9450506040613e1a88828901613c7d565b9350506060613e2b88828901613c7d565b925050608086013567ffffffffffffffff811115613e4c57613e4b615105565b5b613e5888828901613c21565b9150509295509295909350565b600080600060608486031215613e7e57613e7d61510a565b5b6000613e8c86828701613b71565b935050602084013567ffffffffffffffff811115613ead57613eac615105565b5b613eb986828701613bb4565b925050604084013567ffffffffffffffff811115613eda57613ed9615105565b5b613ee686828701613bb4565b9150509250925092565b60008060008060808587031215613f0a57613f0961510a565b5b6000613f1887828801613b71565b945050602085013567ffffffffffffffff811115613f3957613f38615105565b5b613f4587828801613bb4565b935050604085013567ffffffffffffffff811115613f6657613f65615105565b5b613f7287828801613bb4565b925050606085013567ffffffffffffffff811115613f9357613f92615105565b5b613f9f87828801613c21565b91505092959194509250565b60008060408385031215613fc257613fc161510a565b5b6000613fd085828601613b71565b9250506020613fe185828601613be2565b9150509250929050565b600080604083850312156140025761400161510a565b5b600061401085828601613b71565b925050602061402185828601613c7d565b9150509250929050565b6000806000606084860312156140445761404361510a565b5b600061405286828701613b71565b935050602061406386828701613c7d565b925050604061407486828701613c7d565b9150509250925092565b600080600080608085870312156140985761409761510a565b5b60006140a687828801613b71565b94505060206140b787828801613c7d565b93505060406140c887828801613c7d565b925050606085013567ffffffffffffffff8111156140e9576140e8615105565b5b6140f587828801613c21565b91505092959194509250565b600080604083850312156141185761411761510a565b5b600083013567ffffffffffffffff81111561413657614135615105565b5b61414285828601613b86565b925050602083013567ffffffffffffffff81111561416357614162615105565b5b61416f85828601613bb4565b9150509250929050565b6000806000606084860312156141925761419161510a565b5b600084013567ffffffffffffffff8111156141b0576141af615105565b5b6141bc86828701613b86565b935050602084013567ffffffffffffffff8111156141dd576141dc615105565b5b6141e986828701613bb4565b925050604084013567ffffffffffffffff81111561420a57614209615105565b5b61421686828701613bb4565b9150509250925092565b6000602082840312156142365761423561510a565b5b600061424484828501613bf7565b91505092915050565b6000602082840312156142635761426261510a565b5b600061427184828501613c0c565b91505092915050565b6000602082840312156142905761428f61510a565b5b600082013567ffffffffffffffff8111156142ae576142ad615105565b5b6142ba84828501613c4f565b91505092915050565b6000602082840312156142d9576142d861510a565b5b60006142e784828501613c7d565b91505092915050565b60006142fc83836147a7565b60208301905092915050565b61431181614eb6565b82525050565b600061432282614dcb565b61432c8185614df9565b935061433783614dbb565b8060005b8381101561436857815161434f88826142f0565b975061435a83614dec565b92505060018101905061433b565b5085935050505092915050565b61437e81614ec8565b82525050565b600061438f82614dd6565b6143998185614e0a565b93506143a9818560208601614f39565b6143b28161510f565b840191505092915050565b60006143c882614de1565b6143d28185614e1b565b93506143e2818560208601614f39565b6143eb8161510f565b840191505092915050565b6000614403603483614e1b565b915061440e8261512d565b604082019050919050565b6000614426602883614e1b565b91506144318261517c565b604082019050919050565b6000614449601483614e1b565b9150614454826151cb565b602082019050919050565b600061446c601083614e1b565b9150614477826151f4565b602082019050919050565b600061448f602b83614e1b565b915061449a8261521d565b604082019050919050565b60006144b2602683614e1b565b91506144bd8261526c565b604082019050919050565b60006144d5601483614e1b565b91506144e0826152bb565b602082019050919050565b60006144f8602483614e1b565b9150614503826152e4565b604082019050919050565b600061451b601a83614e1b565b915061452682615333565b602082019050919050565b600061453e602983614e1b565b91506145498261535c565b604082019050919050565b6000614561601083614e1b565b915061456c826153ab565b602082019050919050565b6000614584602583614e1b565b915061458f826153d4565b604082019050919050565b60006145a7603283614e1b565b91506145b282615423565b604082019050919050565b60006145ca600a83614e1b565b91506145d582615472565b602082019050919050565b60006145ed602e83614e1b565b91506145f88261549b565b604082019050919050565b6000614610602383614e1b565b915061461b826154ea565b604082019050919050565b6000614633602a83614e1b565b915061463e82615539565b604082019050919050565b6000614656602083614e1b565b915061466182615588565b602082019050919050565b6000614679601283614e1b565b9150614684826155b1565b602082019050919050565b600061469c601c83614e1b565b91506146a7826155da565b602082019050919050565b60006146bf602b83614e1b565b91506146ca82615603565b604082019050919050565b60006146e2601283614e1b565b91506146ed82615652565b602082019050919050565b6000614705602983614e1b565b91506147108261567b565b604082019050919050565b6000614728602983614e1b565b9150614733826156ca565b604082019050919050565b600061474b601483614e1b565b915061475682615719565b602082019050919050565b600061476e602883614e1b565b915061477982615742565b604082019050919050565b6000614791602183614e1b565b915061479c82615791565b604082019050919050565b6147b081614f20565b82525050565b6147bf81614f20565b82525050565b60006020820190506147da6000830184614308565b92915050565b600060a0820190506147f56000830188614308565b6148026020830187614308565b81810360408301526148148186614317565b905081810360608301526148288185614317565b9050818103608083015261483c8184614384565b90509695505050505050565b600060a08201905061485d6000830188614308565b61486a6020830187614308565b61487760408301866147b6565b61488460608301856147b6565b81810360808301526148968184614384565b90509695505050505050565b600060208201905081810360008301526148bc8184614317565b905092915050565b600060408201905081810360008301526148de8185614317565b905081810360208301526148f28184614317565b90509392505050565b60006020820190506149106000830184614375565b92915050565b6000602082019050818103600083015261493081846143bd565b905092915050565b60006020820190508181036000830152614951816143f6565b9050919050565b6000602082019050818103600083015261497181614419565b9050919050565b600060208201905081810360008301526149918161443c565b9050919050565b600060208201905081810360008301526149b18161445f565b9050919050565b600060208201905081810360008301526149d181614482565b9050919050565b600060208201905081810360008301526149f1816144a5565b9050919050565b60006020820190508181036000830152614a11816144c8565b9050919050565b60006020820190508181036000830152614a31816144eb565b9050919050565b60006020820190508181036000830152614a518161450e565b9050919050565b60006020820190508181036000830152614a7181614531565b9050919050565b60006020820190508181036000830152614a9181614554565b9050919050565b60006020820190508181036000830152614ab181614577565b9050919050565b60006020820190508181036000830152614ad18161459a565b9050919050565b60006020820190508181036000830152614af1816145bd565b9050919050565b60006020820190508181036000830152614b11816145e0565b9050919050565b60006020820190508181036000830152614b3181614603565b9050919050565b60006020820190508181036000830152614b5181614626565b9050919050565b60006020820190508181036000830152614b7181614649565b9050919050565b60006020820190508181036000830152614b918161466c565b9050919050565b60006020820190508181036000830152614bb18161468f565b9050919050565b60006020820190508181036000830152614bd1816146b2565b9050919050565b60006020820190508181036000830152614bf1816146d5565b9050919050565b60006020820190508181036000830152614c11816146f8565b9050919050565b60006020820190508181036000830152614c318161471b565b9050919050565b60006020820190508181036000830152614c518161473e565b9050919050565b60006020820190508181036000830152614c7181614761565b9050919050565b60006020820190508181036000830152614c9181614784565b9050919050565b6000602082019050614cad60008301846147b6565b92915050565b6000604082019050614cc860008301856147b6565b614cd560208301846147b6565b9392505050565b6000614ce6614cf7565b9050614cf28282614f9e565b919050565b6000604051905090565b600067ffffffffffffffff821115614d1c57614d1b6150a5565b5b602082029050602081019050919050565b600067ffffffffffffffff821115614d4857614d476150a5565b5b602082029050602081019050919050565b600067ffffffffffffffff821115614d7457614d736150a5565b5b614d7d8261510f565b9050602081019050919050565b600067ffffffffffffffff821115614da557614da46150a5565b5b614dae8261510f565b9050602081019050919050565b6000819050602082019050919050565b600081519050919050565b600081519050919050565b600081519050919050565b6000602082019050919050565b600082825260208201905092915050565b600082825260208201905092915050565b600082825260208201905092915050565b6000614e3782614f20565b9150614e4283614f20565b9250827fffffffffffffffffffffffffffffffffffffffffffffffffffffffffffffffff03821115614e7757614e76615018565b5b828201905092915050565b6000614e8d82614f20565b9150614e9883614f20565b925082821015614eab57614eaa615018565b5b828203905092915050565b6000614ec182614f00565b9050919050565b60008115159050919050565b60007fffffffff0000000000000000000000000000000000000000000000000000000082169050919050565b600073ffffffffffffffffffffffffffffffffffffffff82169050919050565b6000819050919050565b82818337600083830152505050565b60005b83811015614f57578082015181840152602081019050614f3c565b83811115614f66576000848401525b50505050565b60006002820490506001821680614f8457607f821691505b60208210811415614f9857614f97615047565b5b50919050565b614fa78261510f565b810181811067ffffffffffffffff82111715614fc657614fc56150a5565b5b80604052505050565b6000614fda82614f20565b91507fffffffffffffffffffffffffffffffffffffffffffffffffffffffffffffffff82141561500d5761500c615018565b5b600182019050919050565b7f4e487b7100000000000000000000000000000000000000000000000000000000600052601160045260246000fd5b7f4e487b7100000000000000000000000000000000000000000000000000000000600052602260045260246000fd5b7f4e487b7100000000000000000000000000000000000000000000000000000000600052603260045260246000fd5b7f4e487b7100000000000000000000000000000000000000000000000000000000600052604160045260246000fd5b600060033d11156150f35760046000803e6150f0600051615120565b90505b90565b600080fd5b600080fd5b600080fd5b600080fd5b600080fd5b6000601f19601f8301169050919050565b60008160e01c9050919050565b7f455243313135353a207472616e7366657220746f206e6f6e204552433131353560008201527f526563656976657220696d706c656d656e746572000000000000000000000000602082015250565b7f455243313135353a204552433131353552656365697665722072656a6563746560008201527f6420746f6b656e73000000000000000000000000000000000000000000000000602082015250565b7f5061757361626c653a206e6f7420706175736564000000000000000000000000600082015250565b7f446f6e277420686176652071756f746100000000000000000000000000000000600082015250565b7f455243313135353a2062616c616e636520717565727920666f7220746865207a60008201527f65726f2061646472657373000000000000000000000000000000000000000000602082015250565b7f4f776e61626c653a206e6577206f776e657220697320746865207a65726f206160008201527f6464726573730000000000000000000000000000000000000000000000000000602082015250565b7f446f6e277420686176652077686974656c697374000000000000000000000000600082015250565b7f455243313135353a206275726e20616d6f756e7420657863656564732062616c60008201527f616e636500000000000000000000000000000000000000000000000000000000602082015250565b7f57686974656c697374206164647265737320697320456d707479000000000000600082015250565b7f455243313135353a2063616c6c6572206973206e6f74206f776e6572206e6f7260008201527f20617070726f7665640000000000000000000000000000000000000000000000602082015250565b7f5061757361626c653a2070617573656400000000000000000000000000000000600082015250565b7f455243313135353a207472616e7366657220746f20746865207a65726f20616460008201527f6472657373000000000000000000000000000000000000000000000000000000602082015250565b7f455243313135353a207472616e736665722063616c6c6572206973206e6f742060008201527f6f776e6572206e6f7220617070726f7665640000000000000000000000000000602082015250565b7f6f6e6c792041646d696e00000000000000000000000000000000000000000000600082015250565b7f496e697469616c697a61626c653a20636f6e747261637420697320616c72656160008201527f647920696e697469616c697a6564000000000000000000000000000000000000602082015250565b7f455243313135353a206275726e2066726f6d20746865207a65726f206164647260008201527f6573730000000000000000000000000000000000000000000000000000000000602082015250565b7f455243313135353a20696e73756666696369656e742062616c616e636520666f60008201527f72207472616e7366657200000000000000000000000000000000000000000000602082015250565b7f4f776e61626c653a2063616c6c6572206973206e6f7420746865206f776e6572600082015250565b7f426f782051756f746120697320456d7074790000000000000000000000000000600082015250565b7f596f75206861766520636c61696d656420616c6c207269676874732e00000000600082015250565b7f496e697469616c697a61626c653a20636f6e7472616374206973206e6f74206960008201527f6e697469616c697a696e67000000000000000000000000000000000000000000602082015250565b7f416c6c204c697374206d6973736d617463680000000000000000000000000000600082015250565b7f455243313135353a2073657474696e6720617070726f76616c2073746174757360008201527f20666f722073656c660000000000000000000000000000000000000000000000602082015250565b7f455243313135353a206163636f756e747320616e6420696473206c656e67746860008201527f206d69736d617463680000000000000000000000000000000000000000000000602082015250565b7f426f78207479706520696420697320456d707479000000000000000000000000600082015250565b7f455243313135353a2069647320616e6420616d6f756e7473206c656e6774682060008201527f6d69736d61746368000000000000000000000000000000000000000000000000602082015250565b7f455243313135353a206d696e7420746f20746865207a65726f2061646472657360008201527f7300000000000000000000000000000000000000000000000000000000000000602082015250565b600060443d10156157f057615873565b6157f8614cf7565b60043d036004823e80513d602482011167ffffffffffffffff82111715615820575050615873565b808201805167ffffffffffffffff81111561583e5750505050615873565b80602083010160043d03850181111561585b575050505050615873565b61586a82602001850186614f9e565b82955050505050505b90565b61587f81614eb6565b811461588a57600080fd5b50565b61589681614ec8565b81146158a157600080fd5b50565b6158ad81614ed4565b81146158b857600080fd5b50565b6158c481614f20565b81146158cf57600080fd5b5056fea2646970667358221220e816e55e6e35b2fdc1880fe201afa44e1eb560d9c43a746078458adbea9353a064736f6c63430008070033",
  "linkReferences": {},
  "deployedLinkReferences": {}
}